:020000040000FA
:1000000098310020F90300000104000019020000EB
:1000100005040000070400000904000000000000BF
:100020000000000000000000000000000B040000C1
:100030000D040000000000000F0400001104000087
:10004000A908000013040000F50B000013040000D1
:10005000130400001304000009060000130400004C
:100060001304000013040000130400001304000034
:100070001304000013040000130400001304000024
:100080001304000001090000130400001304000021
:1000900013040000130400007109000013040000A1
:1000A00013040000130400001304000013040000F4
:1000B0001304000013040000000000000000000012
:1000C00013040000130400001304000013040000D4
:1000D00013040000130400001304000000000000DB
:1000E0000000000000000000000000000000000010
:1000F0000000000000000000000000000000000000
:1001000000000000000000000000000000000000EF
:1001100000000000000000000000000000000000DF
:1001200000000000000000000000000000000000CF
:1001300000000000000000000000000000000000BF
:1001400000000000000000000000000000000000AF
:10015000000000000000000000000000000000009F
:10016000000000000000000000000000000000008F
:10017000000000000000000000000000000000007F
:10018000000000000000000000000000000000006F
:10019000000000000000000000000000000000005F
:1001A000000000000000000000000000000000004F
:1001B000000000000000000000000000000000003F
:1001C000000000000000000000000000000000002F
:1001D000000000000000000000000000000000001F
:1001E000000000000000000000000000000000000F
:1001F00000000000000000000000000000000000FF
:10020000DFF810D000F092F90048004745220000C6
:10021000AFF3008098310020094B1EF0040F1CBF83
:10022000EFF309801847EFF308800649064A884231
:1002300001D8904202D88D464FF0000018470000C8
:10024000AD060000983100209811002030B450E82D
:10025000012F93B2C48923448489A34228BF1B1B66
:100260000489A34202BFBFF32F8F002007E0C3EA37
:10027000020340E80134002CE9D14FF001000A608C
:1002800030BC704750E8012FC2EA024240E8012129
:100290000029F7D1704730B450E8022F1FFAA2F3BB
:1002A000C488A34202BFBFF32F8F00200DE0C48992
:1002B00023448489A34228BF1B1BC2EA034340E8AE
:1002C0000234002CE8D14FF001000A6030BC7047C6
:1002D00050E8022FC2EA224240E802210029F7D169
:1002E0007047034653E8022FD988B2EB324F4FF0E4
:1002F000000017BF92B241EA014142EA014104E025
:100300005A68B2EB324F08BF012043E80212002ABC
:10031000E8D1704730B4044654E8000F0D4644E875
:100320000053002BF8D1156030BC704730B4044640
:1003300054E8000F40EA010544E80053002BF7D1D0
:10034000156030BC704730B4044654E8000F00EA32
:10035000010544E80053002BF7D1156030BC70470D
:1003600030B4044654E8000F80EA010544E8005325
:10037000002BF7D1156030BC704730B4044654E808
:10038000000F00EB010544E80053002BF7D1156086
:1003900030BC704730B4044654E8000FA0EB0105B0
:1003A00044E80053002BF7D1156030BC704770B49F
:1003B00004464FF0000054E8006F0D68AE4207BFDE
:1003C00044E80023012044E800630E60002B1CBFBA
:1003D0000020F0E770BC704730B4044654E8000FCA
:1003E00088422CBF451A054644E80053002BF5D13E
:1003F000156030BC7047000006488047064800473B
:10040000FEE7FEE7FEE7FEE7FEE7FEE7FEE7FEE7C4
:10041000FEE7FEE775090000010200002DE9F05F2C
:100420000546002092469B46884606468146402463
:100430001BE0284641464746224600F067F85346EF
:100440005A46C01A914110D311461846224600F070
:1004500016F82D1A67EB01084F46224601200021AD
:1004600000F00DF817EB00094E41201EA4F1010425
:10047000DFDC484631462A464346BDE8F09F202A45
:1004800004DB203A00FA02F1002070479140C2F1EB
:10049000200320FA03F31943904070470048704747
:1004A0006457000040EA01039B0703D009E008C934
:1004B000121F08C0042AFAD203E011F8013B00F829
:1004C000013B521EF9D27047D2B201E000F8012B75
:1004D000491EFBD270470022F6E710B513460A46C4
:1004E00004461946FFF7F0FF204610BD421C10F8E5
:1004F000011B0029FBD1801A7047034611F8012B1C
:1005000000F8012B002AF9D118467047202A04DB95
:10051000203A21FA02F00021704721FA02F3D0407C
:10052000C2F120029140084319467047064C074D1E
:1005300006E0E06840F0010394E8070098471034B3
:10054000AC42F6D3FFF760FE7C6100009C610000C6
:1005500070B58C1810F8015B15F0070301D110F885
:10056000013B2A1106D110F8012B03E010F8016BB2
:1005700001F8016B5B1EF9D12B0705D40023521E35
:100580000DD401F8013BFAE710F8013BCB1A921C9D
:1005900003E013F8015B01F8015B521EF9D5A1429B
:1005A000D8D3002070BD2DE9F0411D4617460E003E
:1005B00027D035B328B3044604F080FE002821D1AB
:1005C0002B463A463146601C04F078FE002819D1CB
:1005D0002B463A463146A01C04F02BFE002811D1D0
:1005E0002B463A463146201D04F045FE002809D12D
:1005F0002B463A46314604F10800BDE8F04104F0CC
:1006000018BE0E20BDE8F0812DE9F8430025DFF883
:1006100094804FF4807601242F460095304602F0F6
:1006200009FA38B1D8F80403204203D0304602F06A
:10063000F7F92543361D64007F1CB6B2082FEDD3B1
:100640004FF4BE74204602F0F5F948B1204602F09E
:10065000E7F945F000456A460121002002F0B0F9B3
:1006600015F0FF0F16D0012600242E420ED008EB05
:100670008401D1F81005D1F81015C0F304200A4AFE
:10068000C1F3014152F8242002B190477600641C66
:10069000082CEAD3002D02DA684603F09FFCBDE87F
:1006A000F883000000600040480200202DE9FC476C
:1006B000814602F047FC00BF02F08AFA0028FBD115
:1006C0002E485FEA090507682D482E494FF00106BC
:1006D000A0EB01004FEAD00006EB004417D0204603
:1006E00029A1AA6902F090FBD5E90201CDE9000138
:1006F000D5E9002320462AA102F096FBE869009084
:10070000D5E90423204634A102F085FB03E020460E
:100710003BA102F075FB1948001D0068800703D556
:100720002046444902F06CFBDFF80C81002500BF35
:1007300006FA05F0384206D058F825201AB12046AE
:100740003EA102F061FB6D1C1A2DF1D3380606D5CF
:100750000A480C30026820463BA102F055FB3804E1
:1007600006D506481030026820463FA102F04CFB37
:10077000484600F087F8BDE8FC87000028ED00E05F
:10078000EC610000AC6100004841524420464155F4
:100790004C54206174203078253038580000000017
:1007A000202052303A2020307825303858202052EE
:1007B000313A2020307825303858202052323A20E3
:1007C00020307825303858202052333A2020307895
:1007D000253038580000000020205231323A2030B5
:1007E000782530385820204C523A20203078253057
:1007F000385820205053523A20307825303858004D
:10080000537461636B2076696F6C6174696F6E3AC3
:1008100020737461636B20706F696E746572206FF2
:1008200075747369646520737461636B20617265AC
:10083000612E0000405800000C01002043617573D8
:10084000653A2025732E00004D656D4D616E616720
:1008500065204661756C7420416464726573733AF7
:100860002030782530385800427573204661756C09
:100870007420416464726573733A2030782530388F
:1008800058000000BFF34F8F05480168054A01F486
:10089000E06111430160BFF34F8F00BFFDE700002F
:1008A0000CED00E00400FA0570B54FF48076304698
:1008B00001F021FE114CB50560B1304601F022FE79
:1008C0000120C5F80803607920B901206071216812
:1008D000002088474FF48276304601F00CFE002855
:1008E0000AD0304601F00EFE0220C5F80803216848
:1008F000BDE870400120084770BD00008C0000205A
:1009000002490248091F09680068084704010020DD
:1009100000F076B970B50E46144900EB400001EBCB
:10092000C0051446E86A183520B101280FD0022806
:1009300005D113E0284600F097F9A04201D2002427
:1009400011E022463146284600F0C6F90BE0284661
:1009500000F08AF9A042F4D20446F2E73146284674
:1009600000F08DF90446204670BD000030090020DB
:1009700002F080BDF0B5904990484FF080550B686B
:10098000D5F830210078D5F83411541CC0F3031089
:1009900006D0944601270026BCF1060F03D00AE0DA
:1009A00003F0FF0CF6E7B5F82443DFF814C2C4F3F4
:1009B0000424CCF80040DCB2062C06D1032804D174
:1009C000DFF804C27F4CCCF87440541C04D0944629
:1009D000BCF1060F03D00AE003F0FF0CF8E7D5F8EE
:1009E0004442DFF8E8C1C4F34234CCF80040DCB242
:1009F000062C08D1032806D1754CD4F800C02CF081
:100A0000807CC4F800C0541C04D09446BCF1060F8E
:100A100003D00BE003F0FF0CF8E74FF08044C4F87C
:100A20000C61C4F81061694C241F2660DCB2062CEE
:100A300008D1032806D1DFF894C103240CF1640C1B
:100A4000CCF80040DCB2062C10D103280ED1DFF820
:100A500084C10524CCF800405E4C783427605D4C9E
:100A6000083426600CF104063F243460541C04D082
:100A700016460C46062E03D05BE0DEB20446F9E7CC
:100A8000E41E012C55D9544C2468544E3460524C09
:100A9000241D2468361D34604F4C08342468361DEC
:100AA00034604D4C0C342468361D34604A4C10348C
:100AB0002468361D3460484C14342468361D346074
:100AC000454C18342468454E20363460424C1C3462
:100AD0002468361D3460404C20342468361D346050
:100AE0003D4C24342468361D34603B4C2834246843
:100AF000361D3460384C2C342468361D3460364C36
:100B000030342468354E40363460334C34342468F5
:100B1000361D3460304C38342468361D34602E4C19
:100B20003C342468361D34602B4C40342468361D18
:100B30003460541C03D01646062E02D007E0DEB205
:100B4000FAE7D5F85842264E04F04F043460541C9E
:100B500003D01346062B02D008E0DBB2FAE72148A7
:100B60000368DB0702D06FF001030360062A07D198
:100B7000C91E022904D91C48016841F48061016042
:100B800013487438016841F470010160BFF34F8F5E
:100B9000BFF36F8FD5E94C10062909D1C01E032879
:100BA00006D94FF01020D0F8080208491C3108601F
:100BB0000F490E480860F0BDE00F00F0E80F00F0AC
:100BC000403501400DF0ADBA00C007403C05004083
:100BD000FCED00E0105600400404001020C5004069
:100BE000E40E0040000400403C1700400090D00399
:100BF0002402002001480068004700009400002003
:100C000010B5124C02202061606111A0A06104F1B6
:100C10007800E0614FF4007020620020A062606202
:100C20000BA1A164E06204F51E71E1641021A065CE
:100C3000C4E91410E06509A1E01DFFF75EFC08A1FE
:100C40002046FFF75AFC2020A07110BD300900207B
:100C50005465726D696E616C00000000525454005E
:100C600053454747455200000269C1688A4203D88C
:100C70008068401A104400E0501A401E70472DE969
:100C8000F047C4681746894606464FF000083069A9
:100C9000A04201D9051B02E0B168201A0D1AB06804
:100CA0006D1E001BA84200D80546BD4200D33D463C
:100CB00070682A4620444946FFF7F4FBB0687F1B62
:100CC0002C44A844A944A04200D10024F460002F81
:100CD000DDD14046BDE8F0872DE9F0410446884665
:100CE000D4E90207C51BE168606816460844B542AE
:100CF00006D94146FFF7D6FBB819E060BDE8F081A0
:100D00002A464146FFF7CEFB761B08EB050132462B
:100D10006068FFF7C7FBE660F0E702E008C8121F53
:100D200008C1002AFAD170477047002001E001C1D4
:100D3000121F002AFBD17047022000F087BBFFB5CD
:100D400083B01D000C9C174631D07CB3C7208DF8B2
:100D5000080026680020019001AB3246294602A80F
:100D600004F0ACFA00281FD101AB3246294603A893
:100D700004F0A4FA002817D101AB3246294604A892
:100D800004F09CFA00280FD101A8009033462A46AF
:100D90009DF81010384604F09EFA002804D122680D
:100DA00001998A4205D2092007B0F0BDFFE70E2065
:100DB000FAE72160F8E71346C72203F099BCF0B5C3
:100DC0000646DDE90545002064B15DB1C227277004
:100DD0006670A170E27023712A680521052A03D28A
:100DE0000920F0BD0E20F0BD2960F0BD1346C222DF
:100DF00003F07EBCF0B50546DDE90546002074B180
:100E00006EB1D32727706570A170090AE170227155
:100E1000637132680621062A03D20920F0BD0E2034
:100E2000F0BD3160F0BD1346D32203F061BC10B5B4
:100E300004468378827A4178007803F0BDFA00286E
:100E400018D123796279E188207803F0DBFA002851
:100E500010D1E178207803F033FB00280AD1A17883
:100E6000C90707D12189002904D02078BDE81040A6
:100E700003F00ABB10BD30B50446002062B15BB17F
:100E8000C425157054709170090AD1701A68042134
:100E9000042A03D2092030BD0E2030BD196030BDB8
:100EA0001346C42203F024BC30B50446002062B1CE
:100EB0005BB1D125157054709170090AD1701A6810
:100EC0000421042A03D2092030BD0E2030BD196050
:100ED00030BD1346D12203F00BBC30B504460020D0
:100EE00052B14BB1CD251570547091701A68032121
:100EF000032A03D2092030BD0E2030BD196030BD59
:100F00001346CD2203F0F4BB1CB514460022019217
:100F100099B194B1FA220A70019A01AB521C019264
:100F2000084A0092226800F0C7FD002804D1226818
:100F300001998A4203D209201CBD0E201CBD2160EC
:100F40001CBD0000A70500001346FA2203F0D0BB29
:100F5000F8B50E4600211D461446009190B18DB1A2
:100F6000022E0DD374B113466A46314600F020F8C4
:100F70000099B14204D1296094F82C100F2900D9AE
:100F80000920F8BD0E20F8BD90F82D10032909D0D6
:100F9000802909D1C178012906D10449807A0870D5
:100FA00001F0ACB800F0CEBF704700000000002098
:100FB0002DE9F04115460F4606001DD0E5B1DBB125
:100FC00028681C46811929221846FFF76BFA286801
:100FD00004F12D03293028602A463946304604F0B2
:100FE00060F9002809D104F12C032A46394630461D
:100FF000BDE8F04104F055B90E20BDE8F0810000D5
:101000000EB50C4A07CA8DE807004FF08050006EFD
:10101000ADF806006846FFF70AFF08B100F0A0F837
:101020000021084603F014FA002801D000F098F8D7
:101030000EBD0000DC53000070B50024064D06E034
:101040006868012110F8340002F022FB641C287843
:101050008442F5D3002070BDA0000020F8B51646EC
:101060000C4605460A2A01D20720F8BD02F00AFC08
:1010700018B902F0CDFB0028F7D1134F1021134807
:101080007D603C70BE60FFF726FA0020C7E90400CF
:101090000F4E0DE005EBC4003168009181788DF8AA
:1010A000011000780B4A694602F042FB0028DCD1AF
:1010B000641EE4B2EED2BDE8F84005480021064ABD
:1010C000001D00F05FB80000A0000020F402002026
:1010D00028540000091F0000F91A000010B572B66C
:1010E00001F030FF01F074FD0028FBD111481249D6
:1010F000401AC408012000EB044010A101F080FE5A
:1011000011480068C00700D000BE022000EB044078
:101110000EA101F075FEBFF34F8F0B48E438016854
:101120000E4A01F4E06111430160BFF34F8F00BF2D
:10113000FDE7000004620000AC61000046617461DC
:101140006C206572726F7200F0ED00E05379737479
:10115000656D207265736574000000000400FA0577
:101160000EB500210091CDE901106A4644F201005C
:10117000FFF7B4FF0EBD0000014800F024BD0000E1
:10118000E000002010B55AB100684FF0FF3401298B
:101190004261C0E9024400D000210161002010BD7D
:1011A000072010BD38B51148082358224168009126
:1011B0000F49006801F0EAF8002815D10D4A694688
:1011C0000D4800F005FD04000ED101210A4800F091
:1011D0007AFD0123094A1946074800F0CCFC06496C
:1011E000012008390870204638BD00003054000046
:1011F00014030020A5410000E0000020FFFF7F0055
:1012000070B5044616460D46002000F03CF8D4E9BF
:101210000201C04370EA010004D0002000F035F85C
:10122000002070BD00F056FE401941F10001C4E9F4
:101230000201002000F029F8A661206900B12561B3
:101240002146BDE87040002003F0BEBD10B5044645
:10125000002000F018F8D4E90201C04370EA010050
:101260000CD04FF0FF30C4E90200002000F00DF870
:101270002146BDE81040012003F0A6BD002000F08B
:1012800004F8002010BD00F003B800F009B8000019
:1012900072B602480168491C01607047FC000020DA
:1012A00003490868401E086000D162B6704700001C
:1012B000FC0000202DE9F041064608680C46411C60
:1012C0004FF0A0474FF0010506D005FA00F1C7F82E
:1012D0000815206801F04EFB6068411C02D0002117
:1012E00001F036FB3168A069C1F82405607D227DDC
:1012F00031681043C1F86C05D4E900123068C0F8B9
:101300001425C0F80C15207D012815D1A068411CBA
:1013100002D0002101F01CFBE068411C05D0854093
:10132000C7F80855E06801F025FBD4E902123068DF
:10133000C0F80825C0F81015BDE8F0812DE9F0418E
:10134000064608680C46411C4FF0A0474FF00105C7
:1013500006D005FA00F1C7F80815206801F014FB63
:101360006068411C02D0002101F0FBFA3168A069DD
:10137000C1F82405607D217D32680843C2F86C0500
:10138000D4E900123068C0F80C15C0F81425207D8F
:10139000012815D1A068411C02D0002101F0E1FA1A
:1013A000E068411C05D08540C7F80855E06801F0A9
:1013B000EBFAD4E902123068C0F80825C0F810151D
:1013C000BDE8F08108B56A46FFF7F5FC08B1FFF704
:1013D000C7FE009808BD00000649095C4FF0A04018
:1013E000D0F81005C84010F0010000D0012080F0B6
:1013F00001007047EC5300002DE9FC410646C00790
:101400004FF000050ED0104F00240122385D0095EA
:1014100000231146019501F053FA641C042CF4D307
:1014200000F046F8B0070DD5074E0024361D002207
:10143000305D032300951146019501F041FA641CCB
:10144000042CF4D3BDE8FC81E853000007490B5C91
:101450004FF0A041D1F804250120984020EA020372
:10146000C1F808351040C1F80C057047E85300007A
:101470000249085C012101F0C8BA0000E8530000ED
:101480000249085C002101F0C0BA0000E8530000E6
:101490000649095C4FF0A040D0F80405C84010F0A0
:1014A000010000D0012080F001007047E8530000E7
:1014B00010B500242046FFF7DBFF641C042CF9D391
:1014C00010BD10B500242046FFF7DAFF641C042C81
:1014D000F9D310BD10B50246064B4FF0FF30002186
:1014E0005C5C944201D1084610BD491C0429F7D325
:1014F00010BD0000EC5300002DE9F0470D46814679
:10150000FFF7E8FF0446042836D2DFF874801B4852
:101510001C4EA8F10C0725B3012D0ED0022D2BD1A6
:1015200004EB440030444578002D25D0B9680029EB
:1015300022D02846BDE8F047084704EB4401755C1B
:101540000E44717849B10E4A4FF48041093A8068DF
:10155000FFF756FE08B987F80390B17808F8041031
:10156000E2E78068FFF772FE04EB4401314418F8AB
:1015700004008D78A842D7D0BDE8F087F053000072
:101580001800002028020020042801D2FFF724BF01
:101590000020704770B50023042810D20D4D00EBD9
:1015A0004004012A02D101290CD00022094E00EB8F
:1015B0004000304461B1012906D0022906D007233A
:1015C000184670BD0E30C2B22A55F9E74270F7E7EF
:1015D0008270F5E72802002070B506461E480024F8
:1015E000C0E90161B00720D5002501221146284637
:1015F000FFF7D0FF6D1C0446042D02D2002CF4D05E
:1016000013E094B940F2333204211448FFF726FD69
:1016100004000AD1FFF710FD040006D10F48104A5C
:101620000021001FFFF7AEFD0446F00712D0012095
:10163000FFF7E2FE74B909480A4A00210C38FFF7A7
:10164000A1FD040006D10548074A01210838FFF72B
:1016500099FD0446204670BD0C000020FC5300009C
:101660008119000089210000390D00002DE9F05F8B
:101670006E4C054600266078B34618B184F801B078
:1016800000F06AFD6A4F4FF47A694FF4C87A4FF060
:101690000108182D69D2DFE805F00C131338475400
:1016A000696E727B727BC58484848484B3B6B9BC52
:1016B000C5C500F051FD3868FFF7C8FD06465CE07F
:1016C0000020FFF7E5FE00284FF0000008D0FFF7EC
:1016D000CFFE022D02D14FF4E16008E0484606E05B
:1016E000FFF7CEFE022D01D1C82000E05046410C8C
:1016F000C0034FF47A72801841F100012570520046
:101700000023FEF78BFE01462AE00020FFF7C0FE13
:1017100000284FF0000004D0FFF7AAFE4FF44870F5
:10172000E5E7FFF7ADFEDFE70020FFF7B1FE002899
:101730004FF0000002D0FFF79BFECFE7FFF7A0FEBF
:10174000D4E70020FFF7A4FE00284FF0000002D0ED
:10175000FFF78EFE01E0FFF793FE257040F6CD41C6
:1017600000223868FFF74CFD064646E00020FFF7F0
:101770006DFE257008E0002051E025703DE084F802
:1017800001800120FFF762FE002240F26661E8E777
:1017900084F801800120FFF759FE00224FF4005128
:1017A000DFE77868FFF752FD0646D5F1110000D05B
:1017B0002EB10220FFF75CFE84F802B01DE0012884
:1017C00016D980B2C8214843C117C90341EA504124
:1017D000C0034FF47A72801841F1000152000023D7
:1017E000FEF71CFE014600227868FFF709FD064659
:1017F0000220FFF745FE84F802803046BDE8F09FE6
:1018000000F0AAFCB9E700F0A7FCB4E700F0A4FCE4
:1018100004E000F0A1FC0020FFF732FE0120FFF7FA
:101820002FFEAAE7FFF74DFEA7E700000C000020FF
:10183000F05300002DE9F0470546861C91460F46FF
:101840004FF0010A0020FFF71EFD1B4C04F21C485C
:1018500060683860D4E90101184F401A3968081AE5
:101860000EE00121404600F0D6FD00F099FC014653
:10187000404600F0D0FDD4E90101401A3968081A49
:10188000401C8642EDD8B9F1000F03D0052065F366
:10189000891002E0062065F39F5061683A681140A4
:1018A00004EB8101C8606068304460600020FFF78D
:1018B000ECFC5046BDE8F0871005002088010020B0
:1018C00070B50D4604460A2902D10D21FFF7F8FF35
:1018D000A0682268411CA1601554D4E9010181422D
:1018E00004D32046BDE8704000F0F1BE70BD00009A
:1018F000044881684068814201D10120704700207E
:101900007047000010050020034630B5074800214D
:101910000478426806E000BF02EBC10005789D42F2
:1019200003D0491CA142F7DB002030BDA0000020FD
:1019300010B5124CFF2060700020FFF725FE18B193
:10194000607800F0FE0060700120FFF71DFE18B106
:10195000607800F0FD0060700220FFF715FE18B1FE
:10196000607800F0FB0060700320FFF70DFE002898
:1019700003D0607800F0F700607010BD0000002018
:1019800000780221FFF7B8BD08B56A46FFF72EFAC6
:1019900008B1FFF7E5FB009808BD000005494FF0CE
:1019A000FF32082841F8202002D3084480F848205C
:1019B000704700004802002008B56A46FFF733FA76
:1019C00008B1FFF7CDFB009808BD08B56A46FFF7E0
:1019D00067FA08B1FFF7C4FB009808BD08B56A466E
:1019E000FFF777FA08B1FFF7BBFB009808BD0000CE
:1019F000F0B54FF0FF3512B10023082601E00823AF
:101A00000C260C4C05E000BF54F823707F1C04D05A
:101A10005B1CB342F8D32846F0BD26185DB286F8A9
:101A2000305044F82310002AF5D1E11881F848001D
:101A3000F1E70000480200200249084490F9300014
:101A4000704700004802002008B56A46FFF758FAC0
:101A500008B1FFF785FB009808BD000070B5084C81
:101A6000050009D010342168002907D008682060DB
:101A7000496828468847F6E70834F4E770BD000057
:101A800034020020054A012120B1012805D19170BE
:101A9000FFF7E4BF51700020FAE7704734020020DE
:101AA00010B5D0E90234D1E90220D11AA04101D306
:101AB000012010BD002010BDF0B41C6806460020B7
:101AC000049D671C974202D90920F0BC7047002E84
:101AD00003D000BF4FF0010701E04FF000070F55A2
:101AE0001C6804F101041C60EFD0002DEDD03046DD
:101AF000AC46F0BC6047000070B500240F4D10E00C
:101B0000686800EBC406307801F078FE717801292E
:101B100001D0012100E000214140307800F064F95B
:101B2000641C28788442EBDBD5E90401084303D028
:101B3000BDE8704003F064B970BD0000A000002053
:101B400010B50021024800F071FC80F3100010BDB8
:101B50002C0900204FF480328A400168C1F84823E4
:101B60000068C0F8082370474FF4A07202EB8101AF
:101B700089B200F0A5B92DE9F04105460E464FF4B3
:101B8000A07000EB860081B228684FF48034B44026
:101B9000984622F07F47C0F808432868C0F84843B9
:101BA000286801F0B1FB286800EB8600C0F840759A
:101BB0002868C0F84443B8F1000F02D02868C0F884
:101BC0000443BDE8F0810068D0F8040570470000C8
:101BD00070B54379234C44F823204279231D03EB4D
:101BE000C202224C1579204A121BD4082DB10825B7
:101BF000022000EB04401EA130E005680A88C5F809
:101C0000082590F904208978002A4FEA411104DB65
:101C100002F1E02282F8001405E002F00F0202F166
:101C2000E02282F8141D90F904100122002909DB3A
:101C300001F01F0502FA05F54909890001F1E021CB
:101C4000C1F800514179002503EBC1010A714179C6
:101C500043F83100032000EB04400EA101F0D0F85E
:101C6000284670BD00010020E4610000AC61000066
:101C700052544320696E7374616E636520616C72A7
:101C80006561647920696E697469616C697A6564FB
:101C90002E0000005254433A20696E697469616CE9
:101CA000697A65642E00000090F90400002809DBC1
:101CB00000F01F02012191404009800000F1E02066
:101CC000C0F8001270470A46022100F084B84FF4B1
:101CD000827100F0F5B8006801210160704700686A
:101CE0000121416070472DE9F05F07460C464FF433
:101CF000A07000EB84001FFA80FA38684FF4803639
:101D0000A6409B4622F07F45C0F848633868C0F87B
:101D100008633868D0F8048500EB8402D2F8409557
:101D2000C2F840855146386801F0EEFAA9EB080088
:101D300020F07F40012806D1102001F0A1FC51467F
:101D4000386801F0E1FA3868D0F80485C0F84463D7
:101D5000A5EB080121F07F413868012900EB8400E0
:101D600010D0C0F840553868D0F804156FF07F4C9B
:101D70006A1A521E22F07F42ACEB0B03934217D338
:101D800062B118E06D1CC0F84055102001F078FCDD
:101D90003868D0F8040540450AD10CE000EB840017
:101DA0006D1CC0F840553868D0F80405884202D050
:101DB0000D20BDE8F09F01223146384600F00BF8B7
:101DC0000020F6E708B56A46FFF7BEF808B1FFF74E
:101DD000C7F9009808BD0368C3F84413002A02D06D
:101DE0000068C0F8041370472DE9F0470E463249E9
:101DF000804601EB5001C007097801D00F0901E0CE
:101E000001F00F07424601200021FEF738FBDFF802
:101E1000AC9004460D46052F4BD2DFE807F00314C3
:101E200019262A00002E44D00121404602F0E4FE8B
:101E30000020FFF728FA4846D0E904120C43154366
:101E4000C9E9044530E00EB1022114E0002112E09E
:101E50004EB10321404602F0CFFE4046BDE8F047B8
:101E6000012103F0ABBA012105E0002E21D10421AC
:101E700001E02EB103214046BDE8F04702F0BCBEB0
:101E80000021404602F0B8FE0021404603F096FAD9
:101E90000020FFF7F8F94A46E043D2E9043418403D
:101EA00024EA0501C9E90401BDE8F0470020FFF775
:101EB000ECB9BDE8F0870000F4020020A00000208B
:101EC00010B5006842581AB101F01EFA012010BD89
:101ED000002010BD10B50B48FFF775FE094A083AFF
:101EE000D2E90434C018D2E9063244F10001C31A21
:101EF00071EB020204D24FF08072801841F10001B0
:101F000010BD0000E000002010B5C0B2FFF7FCFCDF
:101F10000446007801F072FC01466078012801D087
:101F2000012000E0002090EA010F08D00449D1E927
:101F30000401084303D1BDE8104002F061BF10BDA9
:101F4000A000002010B5FFF7F3FC0C480121024669
:101F50000170FF2141708170C17001714171817107
:101F6000811E4978C1710821002002F005FA00287D
:101F700003D0BDE81040FFF7F3B810BD0200002009
:101F80002DE9FC5F0E008346DDE90C47C6F1000039
:101F900098469246814600D40846012503E000BFDA
:101FA00090FBFAF06D1C5045FADAA84500D9454679
:101FB00024B1002E01DB780700D5641EB80702D5D6
:101FC000B8F1000F0AD0F80708D13CB1A54205D2FC
:101FD00020215846641EFFF773FCF6E7002E02DA54
:101FE0004E462D2102E0780703D52B215846FFF7F6
:101FF00067FC07F0030002280BD1B8F1000F08D1ED
:102000003CB1A54205D230215846641EFFF758FC6A
:10201000F6E7CDE90047434652463146584603F0BD
:1020200073F9BDE8FC9F000070B50D4604460068DA
:102030004FF4887101F0BEFA4FF49071206801F0FE
:10204000B9FA4FF49271206801F0B4FA4FF4A2711A
:10205000206801F0AFFA4FF4AC71206801F0AAFAE1
:1020600020681249C0F804132068690740F307305C
:10207000090E002804DB00F1E02080F8001405E0E0
:1020800000F00F0000F1E02080F8141D206840F3FC
:102090000730002809DB00F01F02012191404009B0
:1020A000800000F1E020C0F8001170BD1003420074
:1020B000024600201268530713D502F003000128DE
:1020C00002D002280CD105E0C2F383100B68801CFB
:1020D000184404E00223086803EB9252104408609D
:1020E000012070470268134602E08A4204D0126859
:1020F000002AFAD10B60016070470000154810B546
:102100000078C043C4B2E0074FF0000002D0FFF7F0
:10211000B7F901E0FFF7ACF9A0074FF0010002D5D5
:10212000FFF7AEF901E0FFF7A3F960074FF00200F7
:1021300002D5FFF7A5F901E0FFF79AF920074FF064
:10214000030003D5BDE81040FFF79AB9BDE8104081
:10215000FFF78EB9000000200A4810B5807860B102
:10216000002401E0022C06D02046FFF781F9641C10
:10217000042CF7D310BD0324F6E7BDE81040FFF7A9
:1021800097B900000C00002003480179C90702D06C
:102190000078FFF76BBA70470C0000207047000012
:1021A0002DE9FF410026244800F032F92248001FA3
:1021B000074600F02DF9214C2149A06800900D68D8
:1021C00000E000986946284004EB80000C30FFF7DF
:1021D0006FFF0028F5D101AA009901EA050304EB7D
:1021E0008303491CDB6842F82030401C0091022820
:1021F000F2D3019800F0030001280BD0022810D17F
:102200000198032101EB90500099BDF80A6001EBA1
:10221000900005E00198BDF80A60C0F383100844FF
:102220000090384600F0F1F808B10098A06004B0C2
:102230003046BDE8F081000028090020100500208C
:10224000880100204FF48041002000F04FFE08B1CB
:10225000FEF786FF00F0AEFCFEF7A4FF08B1FEF724
:102260007FFF00210320FFF7B7F908B1FEF778FFE1
:1022700000F046FF08B1FEF773FF01F0AFF808B1B8
:10228000FEF76EFF01F046F808B1FEF769FFFEF7B2
:10229000B7FE09480949401AC008032101EB004074
:1022A00007A100F0ADFD00BF00F092FC0028FBD1BB
:1022B00000F03AFFF8E7000004620000AC610000A3
:1022C000414E5420494F205458206578616D706C00
:1022D0006520737461727465642E00002DE9F04707
:1022E000C5881E1DB6FBF5F78946B6FBF5F1044619
:1022F00005FB176C407916686843DDF820A0F718D5
:10230000001F874200D9C61A166001E02468491EE2
:102310000029FBD1A5EB0C078846B74216D818E078
:1023200004EB0C00001D09EB0803BAF1000F3A465C
:1023300002D00146184600E01946FEF7B3F82468BB
:10234000F61B4FF0000CB844B54201D9374600E007
:102350002F46002EE4D1BDE8F087000030B50246DC
:1023600051B100F0D7FD0021074C08E034F82130CE
:102370001568AB4202D11160002030BD491C81427A
:10238000F4D3052030BD00000000000010B531B1CD
:10239000B2FBF3F403FB14241CB1092010BD0E2082
:1023A00010BD01600021416081608281C3810846C7
:1023B00010BD70B50C460546FDF748FF002802D059
:1023C00021882868084470BD10B50A8849888A4267
:1023D00003D1FDF77DFF012010BD002010BD70B5B9
:1023E0000C460546FDF757FF002802D06188286893
:1023F000084470BD10B50A8849888A4203D1FDF7A8
:1024000041FF012010BD002010BD002100F009B8DF
:10241000012100F010B808B56A46FDF7AEFF00983C
:1024200008BD08B56A46FDF78EFF08BD08B56A46C7
:10243000FDF770FF08BD08B56A46FDF777FF009805
:1024400008BD08B56A46FDF7A5FF009808BD70B540
:10245000044600252846FEF716FF216862680868D2
:1024600090420ED9401E08600178238AE26801FB81
:102470000325227A2168101AC0B20A79824200D25A
:1024800008710020FEF701FF284670BD70B50546B3
:102490000C460020FEF7F7FEE868298A201AB0FBF8
:1024A000F1F12A681068431C13600170BDE87040A8
:1024B0000020FEF7EABE10B530B1017A4268036829
:1024C000891AC9B21A6006E00E2010BD03681A68A6
:1024D000541C1C601170491EC9B2F7D2006800215B
:1024E0000171084610BDC20800F007030120895C95
:1024F00098400840704700F180400068002800D0F4
:102500000120704708B500F180400021016000689B
:10251000009008BD0548006800F00110B0F1011FEF
:1025200001D0002070470120704700000C040040DB
:1025300070B5104D0446687838B114B16168002058
:1025400088470020FEF79FFE0CE00020FEF79BFE70
:1025500024B1084821460830FFF7C4FD686808B96F
:1025600001F04CF86868401C6860BDE870400020CD
:10257000FEF78BBE3402002070B50C4C012520788C
:1025800008B185260BE00020A06060602061E0605B
:10259000074801F03FF8064601F01AF8257001F0EF
:1025A0000FF800B1A570304670BD00003402002065
:1025B000851A000002480068C0F300407047000020
:1025C0001804004070B5104D0446A87838B114B115
:1025D0006168012088470020FEF755FE0CE00020CE
:1025E000FEF751FE24B1084821461030FFF77AFD6E
:1025F000E86808B901F01EF8E868401CE860BDE82A
:1026000070400020FEF741BE34020020F0B50546C0
:102610000478154889B0164640F82420124A086903
:10262000121DA2F1080742F82400487F38552022E5
:102630006846FDF737FF04942878385C48B10EB13E
:102640000A4A00E000226946281D01F099FA09B003
:10265000F0BD0EB1064A00E00022694605F10C000B
:1026600001F042F9F3E7000084000020F15000007F
:10267000954F000030B40378054CE35C1BB130BCCF
:10268000001D01F0B3BA30BC0C3001F097B9000066
:102690008000002030B40378054CE35C1BB130BCF3
:1026A000001D01F025BB30BC0C3001F0FDB900006D
:1026B000800000200FB408B50399002904D004AAB3
:1026C00000926A4600F00FF801B05DF814FB10B5F7
:1026D00082680446002A05D0D4E90403216898479B
:1026E0000020A06010BD2DE9FC4791460C008046FB
:1026F00076D014F8011B39B125290ED04046FFF7DA
:10270000DFF820780028F4D198F80C00002867D072
:102710004046BDE8FC47FFF7DABF002001222178E0
:102720002B291BD02D2902D0302908D102E040F0FE
:10273000010001E040F00200641C002AEFD10025F6
:102740002A290ED02178A1F130020A2A11D205EBF4
:10275000850201EB4205641C303DF1E740F00400C6
:10276000EAE7D9F800100B1DC9F800300968641CAD
:102770000D44217800232E290BD114F8011FA1F15B
:1027800030020A2A05D203EB830201EB4203303BFD
:10279000F3E76C290DD068290BD0692921D00BDC17
:1027A000252918D0582931D063290ED0642915D194
:1027B00017E014F8011FECE7702969D0732932D0B3
:1027C00075291BD0782909D120E0D9F80000011D16
:1027D000C9F8001001784046FFF772F8641C90E7D2
:1027E0006CE0D9F800100A1DC9F800200968CDE98D
:1027F00000500A224046FFF7C3FBEFE7D9F800106C
:102800000A1DC9F8002009680A2206E0D9F800105C
:102810000A1DC9F8002009681022CDE90050404681
:1028200002F072FDDAE7D9F8001000270A1DC9F896
:1028300000200E68C00705D112E04046761C7F1CC0
:10284000FFF73EF831780029F7D104E02021404617
:102850006D1EFFF735F8BD42C0D9002DF6D1BDE79A
:102860004EB13046FDF742FE074604E020214046C7
:102870006D1EFFF725F8BD4206D9002DF6D103E005
:102880004046761CFFF71CF831780029F8D1A5E7FF
:10289000D9F80000011DC9F8001005683021404634
:1028A000FFF70EF878214046FFF70AF808200021CC
:1028B000CDE90001034610222946B0E7BDE8FC87B8
:1028C00070B541EA4201DDE904564FF0A04441EA07
:1028D000830141EA052104EB800041EA0641C0F88A
:1028E000001770BD70B541EA4201DDE904564FF0B2
:1028F000A04441EA830141EA052104EB800041EA5A
:102900000641C0F8001770BD70B541EA4201DDE92B
:1029100004564FF0A04441EA830141EA052104EB4B
:10292000800041EA0641C0F8001770BD70B541EA69
:102930004201DDE904564FF0A04441EA830141EA37
:10294000052104EB800041EA0641C0F8001770BD84
:102950001CB500220B46009211460192FFF7D4FFEE
:102960001CBD1CB500220B46009211460192FFF7D8
:10297000DDFF1CBD1CB5002100910B460122019119
:102980001146FFF7C1FF1CBD1CB5002100910B468D
:10299000012201911146FFF7C9FF1CBD4FF0A04273
:1029A00002EB8000D0F8002722F44032C0F8002764
:1029B000D0F8002742EA0141C0F800177047000034
:1029C00038B5094B44181B6800936B4608E000BFFC
:1029D00053F82010D1F8205520C2C1F82055401CD2
:1029E0008442F5D838BD00001C54000042094FF065
:1029F000000100D1491E00F01F00012282400A425E
:102A000001D0012070470020704701224FF0A04301
:102A1000824011B1C3F808257047C3F80C257047F0
:102A2000034908B50844002101600068009008BD12
:102A30000060004002494058012800D00020704743
:102A40000060004030B5154A01460020D2F810441D
:102A500023460AE0DB681D79854205D1401C0A281F
:102A6000F6DB4FF0FF3030BD1B68002BF2D1431C6A
:102A7000F9D0CB681871D2F8103443B1DB68CC6858
:102A80001B682360D2F81024D268116030BDC2F8F0
:102A90001014C96800220A6030BD00001005002033
:102AA0007047FDF735BF704708B5034A00924023D1
:102AB000024A00F005F808BD8D4B000078030020A5
:102AC000F0B595B01C4615460E4608461A9F00F014
:102AD000F1FA182109A8FDF7FEFC0E97CDE909547B
:102AE0000023082203A9304600F0F9FA0598069061
:102AF000BDF81000ADF81C00BDF81200ADF81E00C6
:102B000000208DF821000399082501F00300012819
:102B100002D0022816D02FE0C1F3C200C1F3831700
:102B20008C0A8DF82000BA002B460FA9304600F021
:102B3000D6FA09A8009006AB3A460FA9204600F045
:102B400015FA19E0C1F3C2008C0D8DF82000082C95
:102B500001D2274600E008272B463A460FA9304607
:102B600000F0BDFA3D44E41B09AB06AA39460FA8A4
:102B700000F064F9002CEAD1304600F0A1FA15B05B
:102B8000F0BD00000A4A012902EBC00007D002296B
:102B900007D0032907D0042907D00020704702205E
:102BA00070470420704700797047407970470000F3
:102BB000AC61000010B5FFF774FF04210348FFF774
:102BC00041FF02490120C968487110BD9C610000A5
:102BD0002DE9FF47FEF78CFE18B1002004B0BDE8D8
:102BE000F0877D4C0020C4F81804BFF34F8F7B4959
:102BF000A06800900D684FF00008284004EB8000AA
:102C00000CE000BFD4F8180470B9616800988142E4
:102C100001D8A160E1E7284004EB80000C30694650
:102C2000FFF746FA0028EDD1002001AA009901EA39
:102C3000050304EB8303491CDB6842F82030401C89
:102C400000910228F2D3019800F00301022902D07A
:102C500001294DD0A5E0810D50228946B2EB905F4D
:102C600000D850210E4666F39F50019008315C4811
:102C700000F0D7F9070077D000F01CFA434608228D
:102C800001A9384600F033FA009908F1080A2940F2
:102C9000681A8000001D864223D94F4D0C3530B193
:102CA000C2B204EB8101301A90460C3104E029468F
:102CB000F2B2002590462846C6B25346384600F088
:102CC00016FA0AEB08032DB1324629464FEA0700EF
:102CD00000F00DFA009909F1030001EB900000905B
:102CE00039E004EB81015346324638460C31EFE7B8
:102CF000C0F38311062900D3062161F389100190E6
:102D0000C0F38310801C8100354800F08AF9070069
:102D100047D000F0CFF94346082201A9384600F019
:102D2000E6F908F1080800260FE00098434600EA9B
:102D30000501401C04EB81010090042238460C314F
:102D400000F0D5F908F10408761C0198C0F383104F
:102D5000B042EAD847B1D4F81054D4F8180478B186
:102D6000384600F0ADF931E01BE0E8684079012811
:102D700004D12A682846394612689047E8680568F1
:102D8000002DF2D1384600F09BF90020FEF77BFAC7
:102D9000D4F8180408B90098A0600020FEF775FA6E
:102DA00014E0D4F8104405E021682046896888477B
:102DB000E0680468002CF7D10A480B49401AC008A3
:102DC000022101EB004009A100F01AF8FEF790FD86
:102DD00080F0010002E700001005002088010020BB
:102DE0002C62000004620000AC6100004261636B71
:102DF000656E647320666C7573686564000000001E
:102E000000231A4601F010BF08B5012300926A465C
:102E100001F00AFF08BD3EB5069C8DE81C000323A7
:102E20006A4601F001FF3EBD7FB5DDE908458DE84A
:102E30003C0004236A4601F0F7FE7FBD2DE9F04710
:102E40000E4680461C469246082940D894F80C90BD
:102E5000002020731946104601F040F90025B542C4
:102E600006D218F805201BA12046FFF723FC03E03B
:102E70001AA12046FFF71EFC6D1C082DEFD318A1E8
:102E80002046FFF717FC0025B54212D218F805704E
:102E90007E2F08D8FDF702FB0068C05D10F03E0FE2
:102EA00001D03A4600E02E220EA12046FFF702FC98
:102EB00003E00DA12046FFF7FDFB6D1C082DE3D3B9
:102EC00001222146504601F0EBF884F80C90BDE851
:102ED000F0870000202530327800000020202000FC
:102EE0007C0000002563000020000000064910B5AA
:102EF00000200870054800F0E1F8002803D10448DC
:102F000000F0F4F9002010BD100500202C62000034
:102F1000E855000002480349401AC0087047000005
:102F20002C620000AC61000013B56846FFF716FA8A
:102F300008B100201CBD0248009950F831001CBDAA
:102F4000AC61000070B508480125D0F81044057048
:102F500007E0E06845712168204649688847E068D5
:102F60000468002CF5D170BD100500202DE9FF4745
:102F700081460C9D00200C462F7B287398461646F0
:102F80002946184601F0AAF8072E42D2DFE806F0DB
:102F900004090F161F2A360049462846FFF78AFB08
:102FA00037E0494628462268FFF784FB31E0D4E940
:102FB000002349462846FFF77DFB2AE0A0680090E1
:102FC000D4E9002349462846FFF774FB21E0D4E901
:102FD0000201CDE90001D4E9002349462846FFF764
:102FE00069FB16E004F1080007C88DE80700D4E982
:102FF000002349462846FFF75DFB0AE004F108007C
:103000000FC88DE80F00D4E9002349462846FFF792
:1030100051FB00222946404601F042F82F73BDE8DB
:10302000FF872DE9F041058A80462D1F4819C01CF5
:10303000B0FBF5F0C6B24046FFF709FA041E19D0FE
:103040000020207101206071E58000272546761E52
:10305000C4F800800BE04046FFF7F9F960B16179F0
:10306000491C6171286005467F1CC0F80080B7428A
:10307000F1D32046BDE8F081204600F002F80020A0
:10308000F8E72DE9F041457901466B1E002201E089
:103090000968521C9A42FBD30F680146002605E0DE
:1030A00038460C68FFF7F2F92146761CAE42F7D39A
:1030B000BDE8F0810121001DFFF7ADB9FFF7FBB9B5
:1030C00010B504460121001DFFF7BBF910F0FF0FFA
:1030D00004D12046BDE81040FFF7D3BF10BD1CB59A
:1030E00001920122009201AAFFF7F8F81CBD1CB55D
:1030F00001920022009201AAFFF7F0F81CBD000027
:10310000064910B500204870091D0860BFF35F8FA5
:103110000349044800F0C0F9002010BD74010020EC
:10312000805400006C03002010B50020FEF7ABF8BF
:10313000F1EE100A20F09F00E1EE100ABFF35F8F5E
:1031400005494020C1F880020020FEF79EF820BF0C
:1031500040BF20BF10BD000004E000E02DE9F041B9
:103160000446002790460E463846FEF78CF8204667
:1031700000F038F830B105270020FEF786F8384611
:10318000BDE8F08120680568B8F1000F05D101683D
:10319000204600F03FF821680860E268012A0CD060
:1031A000022A0ED0042A11D06068082A13D005FB29
:1031B00002013046FDF776F9DEE76068405D307069
:1031C000DAE7606830F815003080D5E7606850F8BD
:1031D00025003060D0E700EBC500D0E90010C6E95B
:1031E0000010C9E7016808684968884201D10120D8
:1031F00070470020704701680A6849688068884203
:1032000001D9491C00E00021914201D10120704701
:10321000002070478068884201D9481C7047002010
:1032200070472DE9F04104464FF000080E46404635
:10323000FEF729F82046FFF7DEFF070009D0207CC3
:1032400038B14FF004080020FEF71FF84046BDE8F3
:10325000F0812068456841682046FFF7DBFF216860
:10326000486037B1206801682046FFF7D3FF216826
:103270000860E268012A14D0022A16D0042A19D064
:10328000082A1CD06068314605FB0200FDF70AF9E8
:10329000204600F07BFF21688A688242D3D2886092
:1032A000D1E7616830784855F2E76168308821F8E5
:1032B0001500EDE76168306841F82500E8E7D6E9D8
:1032C0000001626802EBC502C2E90001E0E710B547
:1032D00004460020FDF7D7FF20680021016041600F
:1032E0008160BDE810400846FDF7CFBF826800212D
:1032F000916082681161826851618268D1608268E0
:10330000516080680160704708B500224250405803
:10331000009008BD3EB50E4A07CA8DE80700684612
:1033200001F0EAF804004FF001050DD000F022F999
:10333000024608480849401AC00805EB004007A1AA
:10334000FFF762FD20463EBD0C480570FAE700001D
:10335000D456000024620000AC61000073645F6119
:103360006E745F656E61626C652829207265747584
:10337000726E65642025732E000000002302002079
:1033800030B514488FB00078002820D00DF12D04FE
:103390000BAD6A462146284601F0C8F830B1052831
:1033A00015D00FB0BDE83040FDF7DABE0A490CA8D1
:1033B00000F072F807E000BFD0E9002168469047AE
:1033C0000CA800F080F80E980028E2D0F4E70FB0C7
:1033D00030BD000023020020C856000038B5184C4C
:1033E000207808B1082038BD0120A070002001F02D
:1033F000F5F8112817D0002001F008F911480068ED
:1034000000900020FDF73FFF0FA21949684601F028
:10341000B5F8050009D0002020700020FDF735FF29
:103420002DB1284638BD002038BD0120F4E700202A
:10343000A070607001F0D2FB012001F0E7F8F2E724
:103440002002002070560000333833312D353231E0
:10345000642D376466392D323464382D65666633E1
:103460002D343637622D323235662D6130306500AD
:10347000DD1000000EB50749684600F00DF805E0C4
:10348000D0E900108847684600F01DF8029800282F
:10349000F6D10EBD8C560000016009684160AFF3A3
:1034A000008010B5D0E900215368994201D1002174
:1034B00004E0D1E90034A34202D01946816010BD76
:1034C00008314160F0E7816800290BD002689268FA
:1034D0000A44826041684B689A4203D108314160D6
:1034E000FFF7DFBF704770B50D460646446804E03D
:1034F000B2682946904718B1246820680028F7D19F
:1035000020682860256070BD406800687047416889
:103510000868002801D002680A607047024600204F
:10352000526806E08B4203D10868106001207047A2
:103530001A461368002BF5D1704700000C4A10B5ED
:1035400002F594730EE0991AC91001EBD17149107C
:1035500002EBC1010C68844201D90B4602E005D29E
:1035600001F108029A42EED3002010BD486810BD58
:10357000A054000000B5FFF7E1FF002800D101488A
:1035800000BD00008C5400004058002800D00120ED
:10359000704708B5002242504058009008BDD0F84E
:1035A0000403084000D0012070474058002800D094
:1035B0000120704708B5002242504058009008BDD5
:1035C00002480068002800D0012070470004014034
:1035D00008480068012110F0010F06D14FF0E020EB
:1035E000C02280F800248430C167034901200860AC
:1035F0007047000000E100E01805004010B54FF4EE
:103600008070FEF77FFF01208107C1F80403086086
:1036100010BD00000649024600200B790BB1852041
:1036200070470A6001220A7100224A717047000047
:103630008C00002070B54FF48270FEF763FF02200B
:103640004107C1F804030B4B196841F08070186002
:103650000948026842F00104046044684FF40A55C6
:103660004668361BAE42FBD3026019600349012055
:10367000086070BDFCED00E0001000E008000040B4
:10368000002802D0014980010847704751540000CA
:103690002DE9F0410E46054600F088FC002828463A
:1036A00019D0FEF7C9F9083800F0F2FC032802D05F
:1036B00001280ED007E04FF0A040D0F81005E840F8
:1036C00010F0010F05D003212846BDE8F041FFF7B7
:1036D00065B90221F8E700F075FC002822D02846E1
:1036E000FEF7AAF904464FF4807000EB84000E4FF9
:1036F00081B207EB8400D0F8102542F00102C0F837
:1037000010250846FFF78CF9002E0BD02846FEF74F
:1037100093F9064951F82000002803D00120A04069
:10372000C7F80403BDE8F0810060004048020020B3
:103730002DE9FC41DFF8B880044608EB04000027BF
:1037400090F930001346C0170E46401C01D00827E0
:103750004AE0B0781946C0F340022046FEF748F927
:103760000546401C3FD0B078410717D4C0070AD0A7
:103770004FF0A04000EB8400D0F8001721F00201C8
:10378000C0F8001707E000217378204600910A4630
:103790000191FFF7A7F8204600F0FAFBB078800708
:1037A00018D51448317800EB8500D0F81025124B5D
:1037B0001A40C0F810254FF4F8524FF4403302EA93
:1037C000042203EA01410A43D0F810150A43C0F865
:1037D000102509E008EB0500327810F8481F41EA8F
:1037E0008211017000E004273846BDE8FC8100002A
:1037F0004802002000600040FFE0FCFF4FF0A041C5
:10380000D1F81015C14011F0010000D0012070471F
:1038100070B5194D95F8580008B1082070BD002406
:10382000661E2046FFF7E2F810B1281980F83060D4
:10383000641CE4B2202CF4D300242046FEF7AEF83A
:10384000641CE4B20C2CF8D300200D4968650B4CC5
:10385000C02081F8000401264020891FC1F8000122
:103860004FF4BE70FFF7DCF8A004C4F8040385F839
:103870005860002070BD0000480200200060004039
:1038800006E000E0034890F85800002800D001202E
:1038900070470000480200200121B1EB507F01D1A8
:1038A000012070470020704770B50D4600F062FCA3
:1038B00004000FD00020FDF7E6FC207920B10020A5
:1038C000FDF7E3FC112070BD012025602071002070
:1038D000FDF7DBFC002070BD0149024801F072BB1E
:1038E000A4020020002000402DE9F04105460079A7
:1038F00016460F4600EB40012D4A01EBC00102EBDA
:10390000810494F82A1011B10820BDE8F0812949FA
:1039100051F820102868FFF7C7FF08B11120F4E71D
:1039200039462846FDF7C6FC6660386920603000DD
:103930004FF001062FD03F7F4FF48E712868FFF7BC
:1039400028FE4FF4A2712868FFF723FE28681A4961
:10395000C0F8041328684FEA471140F307300028E5
:1039600004DB00F1E02080F8001405E000F00F0017
:1039700000F1E02080F8141D286840F3073000288B
:1039800009DB00F01F0106FA01F14009800000F197
:10399000E020C0F8001128680421C0F800150020BC
:1039A000A061E06184F8290044F8140FA675ACE723
:1039B000A402002020540000800002002DE9F05FE6
:1039C000054600794FF4017600EB400303EBC0009D
:1039D000344B03EB80040020636813B12B68C3F8F9
:1039E0000863A3694FF000096BB1E06938B1606802
:1039F00010B12868C0F804631120BDE8F09FE261AF
:103A00000120216105E0C4F82490A261E160C4F8BE
:103A10001C9094F82910014302D1284600F09BFC29
:103A200060680028286803D0C0F804630020E4E739
:103A30004FF4A2763146FFF7ACFDB2464FF4927BCD
:103A400059462868FFF7A0FD06464FF484712868A0
:103A5000FFF79AFD804651462868FFF795FD074617
:103A600048EA07003043EBD056EA070007D1214669
:103A7000286800F041FCA169606A8142E0D8C4F87E
:103A800018900EB10320B8E70FB10F20B5E794F8F6
:103A9000291001200029296801D00860C6E7486084
:103AA000C4E70000A40200202DE9F05F054600797C
:103AB0000B4600EB400101EBC000244901EB800400
:103AC000284600F045F810B11120BDE8F09F626172
:103AD0004FF00009C4F82090A36084F828904FF4B8
:103AE0008E784E4641462868FFF753FD28684FF010
:103AF000010AC0F808A02146286801F09EF9606814
:103B000008BBD5F800B067690FE000BF94F8280043
:103B100008B10F2615E041465846FFF735FD00284D
:103B2000F4D02146584601F088F9206AB842F2D311
:103B3000574641462868FFF727FD0028F9D0286836
:103B4000C760C4F814903046BFE70000A40200200C
:103B5000007900EB400101EBC000044901EB80005B
:103B60004069002800D0012070470000A402002016
:103B70000149024801F0D4BAD002002000200040E0
:103B80002DE9F0410546164600790F46154A00EB2F
:103B9000C00102EB810494F8201011B10820BDE8A7
:103BA000F081114951F820102868FFF77DFE08B117
:103BB0001120F4E739462846FDF7C0FB66603869F6
:103BC00020601EB1397F2846FEF72EFA28680821AA
:103BD000C0F800150020A061E0616061012184F857
:103BE0002010DCE7D0020020245400002DE9F05F13
:103BF000044600790E4600EBC001DFF8F0A017463E
:103C00000AEB81053046FFF747FEB0B168684FF018
:103C100000084FF4047910B12168C1F80893A8692D
:103C20004FF0000B80B1E86948B1686810B12068B6
:103C3000C0F804931120BDE8F09F1020FBE7EF616E
:103C40004FF001082E6102E0EE60C5E9067B002519
:103C50004FF488712068FFF7ADFC4FF4A271206823
:103C6000FFF7A8FC2068C0F83465C0F838752068F4
:103C7000B8F1000F12D0D0F8001241F02001C0F8C6
:103C800000122079D04600EBC0010AEB81004068A9
:103C900038B12068C0F804932846CCE701210160C0
:103CA000EFE74FF4887A4FF4A27951462068FFF786
:103CB0007CFC074649462068FFF777FC06464FF430
:103CC00092712068FFF771FC014647EA060008433D
:103CD000EBD0227902EBC20308EB8302C2F818B0E2
:103CE00001B10325002ED7D00F25D5E7D002002043
:103CF0002DE9F04704460E460079274900EBC00045
:103D000001EB800517463046FFF7C6FD30B120466F
:103D100000F044F820B11120BDE8F0871020FBE747
:103D20006F61AE604FF490774FF00008394620681D
:103D3000FFF740FC4FF4AC7631462068FFF73AFCC1
:103D40002068AA686969C0F84425C0F84815206849
:103D50004FF00109C0F808906868D0B9BA465146DA
:103D60002068FFF722FC074631462068FFF71DFC5C
:103D70000743F4D010B14FF00F0808E02068C0F8F6
:103D80000C9031462068FFF710FC0028F9D0002085
:103D900068614046C0E70000D00200200079054974
:103DA00000EBC00001EB80004069002800D001203A
:103DB00070470000D00200207047000010B50122BB
:103DC00005490648FEF756FC002803D0BDE8104020
:103DD000FDF7C6B910BD0000ED0100200856000037
:103DE00010B5022205490648FEF744FC002803D01E
:103DF000BDE81040FDF7B4B910BD0000F20100208D
:103E0000085600002DE9F05F5E4D00260B464FF08E
:103E1000050B3446C0B2297804276BF307044FF032
:103E200003084FF002094FF0010A072863D2DFE8C8
:103E300000F00413535E7A828900687803285AD10F
:103E40006F70514800F0EEFC08B1FDF789F931467A
:103E5000204661F3070048E020469AB26AF3070063
:103E6000B2F5007F19D8012902D004290ED042E012
:103E700032466B6811469847444800F04DFD08B142
:103E8000FDF76EF985F80090BDE8F09F32466B684B
:103E90001146984785F800B0F6E7012902D00429B9
:103EA0000DD028E032466B6811469847002000F09C
:103EB00033FD08B1FDF754F985F80080E4E7324698
:103EC0006B6811469847002000F026FD08B1FDF709
:103ED00047F906202870D7E702290CD120462F7019
:103EE00069F30700194662F30F06324645E00329DD
:103EF00006D006290ED0BDE8F05F0020FDF730B9EE
:103F0000204632466B6868F307001146984785F8EB
:103F100000A0B9E7204632466B6868F307001146F7
:103F200098472F70B0E732462046114667F30700E6
:103F300062F3070121E02046314667F307006AF388
:103F40000701D2E767F307046878A04669F307061C
:103F50001C46032802D0022905D00BE06F701046E2
:103F600000F060FC03E02F70104600F011FC08B177
:103F7000FDF7F6F82246314640466B68BDE8F05F33
:103F800018470000E4010020B80B0020B80D002005
:103F900010B50549C20800F00703885C01249C4065
:103FA0002043885410BD00009C02002004490844AE
:103FB00090F93000082801DB01207047002070478D
:103FC000480200200449084490F93000082801D232
:103FD0000120704700207047480200202DE9F05F63
:103FE0002A4F06464FF0A04A4FF0010B0024381923
:103FF00090F95010491C3CD090F85000314620F008
:10400000C0052846FEF76FFA20B3204600F040F8BE
:1040100081460AEB8500D0F80007C0F30148B8F1EB
:10402000020F18D002212846FEF7B8FC0BFA05F162
:10403000CAF820152846FDF7FFFC57F820204AB1A2
:104040004846B9F1030F11D0B8F1020F05D0B8F10D
:10405000030F07D00DE00321E5E74846B9F1010F52
:1040600004D006E04846B9F1020F02D101462846C5
:104070009047641C042CBAD3324601210020FEF77D
:104080009FFC30680028B1D1BDE8F09F48020020B5
:104090000249084490F85000800970474802002007
:1040A00010B50C46017A052908D0407A38B1084885
:1040B00008A102682046FEF7FDFA00E01AB106A149
:1040C0002046FEF7F7FA2046BDE81040FEF7FFBA9B
:1040D000B8010020257300000D0A000038B5C38820
:1040E0000D46044633B114A0009015A216A128462F
:1040F000FEF7E0FA217A05291CD0607A48B1A08841
:10410000FEF740FD164951F8202016A12846FEF77B
:10411000D1FAA0880021FEF707FF03461049207A54
:10412000143951F8202001B02846BDE830400EA1D6
:10413000FEF7C0BA38BD00001B5B306D0000000008
:104140001B5B313B33316D0025734C6F677320640B
:10415000726F70706564202825642925730D0A002C
:10416000B8010020257300003C25733E2025733ADA
:10417000200000000349884201D103487047002015
:1041800070470000002000409400002001680A6889
:104190004968914201D3881A70478068801A0844A0
:1041A000401C704770B50546FDF791FD134C40B1BA
:1041B000D4E904024FF08071411842F10000C4E9D3
:1041C000041000212846FDF7CFFC30B1606820B113
:1041D000606800F075FD0020606001212846FDF751
:1041E000C3FC18B1FDF776FEC4E90601284600F0CD
:1041F000ABFD2846BDE8704000F038B8D80000207C
:104200002DE9F04100260E70D0E902740D4680467B
:10421000FDF760FE381A002364EB01011A461B1AF1
:104220008A4115DAB0F5350F04D3FCF7A5FF0D4927
:10423000421800E03A464FF4960300210A48FDF781
:1042400052FD10B10D2807D00AE00120BDE8F08131
:1042500000210548FDF77EFC404600F031FD287046
:104260000020F3E7FFFFB400E0000020F8B5204C89
:10427000064600251F48FFF747F910B3D0E90210A2
:10428000CA4372EA000224D0626882B16368D3E94B
:104290000223891A984127D26068D0E90210C943E5
:1042A00071EA000103D061681248FFF71CF900F0C1
:1042B0009DFC07466946FFF7A3FFB0B1606858B19F
:1042C0000DE0606800280FD13046BDE8F840FDF7EA
:1042D00006BD00F08BFCCDE73046FDF7FCFC6760C7
:1042E0009DF800000028C5D1F8BD6560C2E7000058
:1042F000D80000203854000070B5054688690C4687
:1043000000284FF4847128460AD0FFF742F9D5F807
:104310001805626AE1688854606A401C606270BD7A
:10432000FFF737F9D5F8180570BD1FB501238DF8D3
:104330000030CDE90121D0E90012684690471FBD49
:104340001FB501238DF80030CDE90121D0E900121D
:10435000684690471FBD10B5044600684FF492713F
:10436000FFF717F94FF484712068FFF712F92068FE
:104370000121016010BD0000FEB50D460646144641
:1043800002A901A800F048FD02A8019B0090224666
:10439000294630465B1CFCF7D2FC08B1FCF7E0FE76
:1043A0000298044A401C81B20290019800F012FB6E
:1043B000FEBD0000C51300002DE9FF410E46074673
:1043C0001C46154603A902A800F026FD029803A981
:1043D000401CCDE9000123462A4631463846FCF709
:1043E000EEFC08B1FCF7BCFE0398054A401C81B204
:1043F0000390029800F0EEFA04B0BDE8F0810000EE
:10440000891900002DE9FF410E4607461C46154656
:1044100003A902A800F000FD029803A9401CCDE901
:10442000000123462A4631463846FCF7E3FC08B132
:10443000FCF796FE0398054A401C81B2039002984F
:1044400000F0C8FA04B0BDE8F0810000B91900001E
:104450007CB50C46054601A9684600F0DDFC009AD3
:1044600001AB21462846521CFCF705FD08B1FCF7BC
:1044700077FE0198034A401C81B20190009800F039
:10448000A9FA7CBDCB1900007CB50C46054601A9F4
:10449000684600F0C1FC009A01AB21462846521C38
:1044A000FCF702FD08B1FCF75BFE0198034A401CD3
:1044B00081B20190009800F08DFA7CBDDD190000FA
:1044C0007CB50C46054601A9684600F0A5FC009A9B
:1044D00001AB21462846521CFCF7FFFC08B1FCF753
:1044E0003FFE0198034A401C81B20190009800F001
:1044F00071FA7CBD491A00001CB5044601A9684642
:1045000000F08AFC009901AA2046491CFCF7FCFC3B
:1045100008B1FCF725FE0198034A401C81B20190C6
:10452000009800F057FA1CBDC51D0000F0B58DB015
:1045300017460D4606000CD05DB157B10022694602
:104540000B48FEF70BFE040005D0052420460DB0F5
:10455000F0BD0E20FBE79DF82D0028709DF82C0083
:104560003070292269463846FBF79CFFEEE70000D1
:104570004062000020BF00207047000038B512489C
:1045800000F06AF804001DD100F097F8322000F026
:1045900053F80E48FEF79BFE0C480D4C1438FEF7FE
:1045A00096FE00200B4B0C4A2146009000F064FA66
:1045B000040005D100F088F84FF4FA7000F03CF8E0
:1045C00000F06CF8204638BD694B000054620000D2
:1045D000294B0000B93D0000C14900003EB504462A
:1045E00009496846FEF758FF08E000BFD0E90021FE
:1045F0002046904730B16846FEF765FF02980028D4
:10460000F4D13EBD11203EBD745600003EB50446B7
:1046100008496846FEF740FF07E000BFD0E90021E7
:10462000204690476846FEF74EFF02980028F5D1D5
:104630003EBD0000805600002DE9F041040007D087
:10464000044E4FF47A47751C3846A847641EFAD1C9
:10465000BDE8F0810056000010B50E490446032065
:10466000C1F80007FDF788FF08B1032010BD002046
:10467000FDF7A8FF0020FDF75BFF00BFFDF74AFF35
:104680000028FBD0FDF796FF0028FBD0024804600D
:10469000002010BD2C000050DC0100200249E02069
:1046A00081F800047047000016E000E04FF0E021C0
:1046B0004FF48000C1F8000270474FF0A0414FF462
:1046C0000060C1F80C0570474FF0A0414FF4006046
:1046D000C1F8080570470000014901200860FEE7A5
:1046E000000500400148007870470000E00100200C
:1046F0001CB50C460021CDE900311346224601A924
:1047000000F009F8002803D10198A04201D00C2044
:104710001CBD00201CBD70B50C46049D28B124B101
:104720001DB1052A03D20C2070BD0E2070BD21687A
:10473000425C9A4201D00B2070BD401C084400F03E
:1047400089FD28602068401D2060002070BD0000A9
:1047500010B50D4C21786278114301D0082010BDAE
:1047600080B10121217061706060084800F0B4F8E8
:104770000028F4D000212170617061600728EED01C
:10478000032010BD0E2010BDE4010020053E0000F6
:1047900070B50546002400F08FF825B11048854219
:1047A00003D010240AE00E2408E00E4D28780428D7
:1047B00008D0062808D0052808D0082400F086F87C
:1047C000204670BD012009E0032007E0044800F006
:1047D000A3F8040001D00324F0E702202870EDE7DD
:1047E000B80D0020E401002010B502004FF00000D9
:1047F00007D031B1094C63782BB1012B05D00420CF
:1048000010BD0E2010BD082010BD02236370044BA4
:1048100013604FF400720A8010BD0000E401002014
:10482000B80B002001004FF0000004D0084A91426C
:1048300003D0102070470E20704706494A78022A9C
:1048400003D0042A01D00820704701224A70704723
:10485000B80B0020E401002070B50C46050005D01F
:1048600034B11348854205D010240DE00E240BE02E
:10487000072409E0B4F5007F01D90C2404E00D4EB3
:104880007078022802D00824204670BD00F014F889
:104890002146284600F066F8040005D0112C00D00F
:1048A000032400F013F8EFE703207070F9E700002D
:1048B000B80B0020E40100204FF0E0210420C1F8F3
:1048C0008001BFF34F8FBFF36F8F70474FF0E02130
:1048D0000420C1F80001704770B5040004D00B4EED
:1048E000306918B1082070BD0E2070BD0949084A12
:1048F000A1F11400FDF78AFE050001D0072070BD6C
:104900003461FFF76DFA284670BD0000EC0100200D
:10491000914E00001C5600000F4A10B51178012975
:1049200001D0082010BD022111700C495060098986
:10493000118118B1FF2904D9FF2203E0FFF73EFAE5
:1049400007E0CAB201460648FDF794FE08B1FCF73D
:1049500007FC002010BD0000B80F0020EC01002073
:10496000085600002DE9F0410C4606000ED07CB13F
:104970000020FCF788FC104D2F78012028700020C3
:10498000FCF783FC37B11120BDE8F0810E20FBE776
:104990000720F9E70848210A801C022204704170B0
:1049A000EE600146AC800548FDF774FE08B1FCF7E7
:1049B000D7FB0020E8E70000EC01002008560000CB
:1049C0002DE91040FFF7D6FD00F050F80028F9D18E
:1049D00010BD00002DE9F0410D4C17460122227058
:1049E000A761FFF739FF051E4FF0000602D0FCF764
:1049F000B7FB08E03FB1A06808B18047A660E06857
:104A00008047E56900E026702846BDE8F081000097
:104A10000002002010B510F0FF001CD0124B01283E
:104A200017D002280ED004281DD1187800281AD0DB
:104A30000320D861002018701869002813D0BDE841
:104A40001040004792B20846BDE81040114600F001
:104A50002DB85869F1E7FFF745FE002803D0BDE8FF
:104A60001040FFF739BE10BD000200200148007859
:104A7000704700000002002030B40848029C00F19A
:104A80000C0585E81C000022C0E9011219B130BCF8
:104A90000348FFF75DBE30BC0720704700020020CE
:104AA000154A0000401EFFF773BE000070B50028D5
:104AB0002DD000292BD010F8016B491E144C05464F
:104AC00089B2012E0DD0042E0BD0072E09D0082E4E
:104AD00019D000BFFFF7E6FF3046BDE87040FCF795
:104AE0003FBB207800282846F4D0A2699047E061B7
:104AF0002846FFF7D7FF002020702069002806D045
:104B0000BDE8704000476268BDE87040104770BD66
:104B100000020020034A12780AB111207047FFF703
:104B200063BE00000002002010B58EB004463020A5
:104B30000C900CAB6A462046FCF70AFA08B1FCF769
:104B40000FFB2046FFF7AEFF08B1FCF709FB6946F3
:104B50000448FEF766FB08B1FCF702FBFFF7A6FD71
:104B60000EB010BD4062000008B508B1022000E0A0
:104B70000320009069460448FEF753FB08B1FCF798
:104B8000EFFAFFF793FD08BD546200002DE9F041F4
:104B90001400884618D000250E4F032608EB0501A7
:104BA00022460020FBF7B6FE0544241A40B93878A7
:104BB000002809D008494FF47A408847761E05D06E
:104BC00001203870002CE9D1BDE8F0810020387058
:104BD000FAE700007C010020E15500004FF0E021E1
:104BE0004FF48000C1F80001704700000148FEF753
:104BF0008EBC000038540000C207002A03D000BF5A
:104C00004FF00F0201E04FF0F00201D04FEA011126
:104C1000044B03EB5003187800EA020040EA01005D
:104C200018707047F40200202DE9F84F074622481B
:104C30009146884605681E46012269461846FCF7DB
:104C4000F9FDDFF878A060B3009800210446801CCD
:104C50000AE000BF00EA050259F821C00AEB82020F
:104C6000401C491CC2F80CC0B142F3D34FEA1749AB
:104C7000FCF766FF611C29400AEB810149EA00420A
:104C80002C40CA600AEB8401C86867F3C50066F36C
:104C9000891068F39F2020F00300401C20F00400DE
:104CA000C8609AF8000001E0FDF792FF0028FBD1F0
:104CB000FDF774FABDE8F88F880100201005002088
:104CC00070B504461E480025007860B35CB3FDF75C
:104CD00001F9D4E90223801A994125D30020FCF779
:104CE000D2FA206910B9681EC4E902000020FCF75E
:104CF000CCFAD4E9051088470020FCF7C4FA2269F1
:104D000072B1D4E90210CB4373EA000308D08918CA
:104D100040F10000C4E902100020FCF7B6FA07E0F9
:104D20000020FCF7B2FA08E0D04370EA030004D098
:104D300021460448FEF7D7FB0125284670BD000038
:104D4000D80000203854000038B51D4D6946286849
:104D5000FDF745FB1B4C30E0017821B101290ED055
:104D6000022922D117E04168D1E90220D24372EA38
:104D700000021AD012480830FEF7B5FB15E0416872
:104D80006068814202D1002060600EE00C4808306B
:104D9000FEF7C4FB09E0FFF729FF20B14FF0FF3118
:104DA000C0E90211F7E70120207069462868FDF785
:104DB0000BFB69462868FDF712FB0028CCD138BDF3
:104DC00030540000D8000020F8B50B4C0D460646C4
:104DD00069462068FDF7EDFA58B1067045606946EE
:104DE0002068FDF707FB10B10448FCF75DFF0020C9
:104DF000F8BD0420F8BD000030540000E0000020A1
:104E0000034880684108034800224068FCF7F8B96D
:104E1000A00000202854000038B50C46054669461D
:104E20002846FFF777FE0028F9D129680620087088
:104E3000BDF80000401E206038BD70B50C46054628
:104E40004FF48E71FEF7A5FB216AA068415C206AD1
:104E5000401C2062C5F81C1570BD1FB500228DF8DE
:104E600000200291816801914261D0E900126846F8
:104E700090471FBD1FB500228DF800200291816868
:104E800001914261D0E90012684690471FBD0000C1
:104E90002DE9F0413D4902783B4D0B697AB1012A79
:104EA00036D0022A01D003201CE0C168880702D056
:104EB0006A6DE86C63E0BDE8F041FEF791BF334EE8
:104EC0004468B61CB21EB44292880FD1B01EFF2AAD
:104ED000C16801D9FF2200E0D2B22B48FDF7DAFB0E
:104EE00000284ED0BDE8F041FCF73AB9067A901B95
:104EF0000004000C888005D0A119FF2800D3FF20F2
:104F0000C2B2EAE700200870343595E807000DE0EA
:104F10001F4C1E4E4768B61DA268B74209D13088A3
:104F2000088101212170A080D4E90001BDE8F04191
:104F30001847164EDFF854C00CF1010C368967454E
:104F40000CD1761E3004000C088103D0BDE8F0417E
:104F5000FEF734BF403595E8070010E0057A701B76
:104F60000004000C088108D07919FF2800D3FF2025
:104F7000C2B20548FDF77EFBB2E7D4E900019847CD
:104F800099E7BDE8F081000008560000EC01002020
:104F9000B80F00201FB50A4601788DF8001041684F
:104FA0000191017A8DF80810C0680390044850F808
:104FB0002210001F50F82220684690471FBD0000B5
:104FC000880000202DE9FF470C4605464FF400718C
:104FD000FEF7E5FA01274FF40178002618B34FF4E5
:104FE000927949462846FEF7CFFAE0B1494628466D
:104FF000FEF7CFFAC5F8088394F8290000B96F606E
:1050000002208DF80000D5F88004C5F880040390D4
:10501000A0690290E0680190A661E661D4E90012FF
:105020006846904728E004212846FEF7B8FA18B3EE
:105030004FF484712846FEF7A7FAE8B121462846C6
:10504000FFF75AF9616AA069884215D1E06938B161
:10505000E268616AA0612069E6616662E06008E07A
:1050600094F8290000B96F60C5F80883A661E2686A
:10507000616A2046FFF759F94FF48E784146284679
:10508000FEF782FA80B16069216A814202D294F807
:10509000280028B341462846FEF77BFA606918B11C
:1050A00061692046FFF7D9FE4FF4A27841462846B1
:1050B000FEF76AFA002818D041462846FEF769FA3A
:1050C00094F8290000B12F60A06900280DD0A661D6
:1050D000E268616A04B02046BDE8F047FFF725B9F1
:1050E00021462846FFF7A9FEDEE7BDE8FF8700005E
:1050F0001FB50A4601788DF8001041680191017AC8
:105100008DF80810C0680390044850F82210001F62
:1051100050F82220684690471FBD000088000020FC
:105120002DE9FF410C464FF4927705463946FEF7CC
:105130003CFA0026B8B139462846FEF73BFA022071
:105140008DF80000D5F88004C5F880040390D5F8E8
:105150003C050290E0680190A661E661D4E9001286
:105160006846904723E04FF4887739462846FEF793
:105170001CFAE0B139462846FEF71CFAD5F83C1572
:10518000A069884213D1E06960B1E268D5F80002F5
:1051900020F02000C5F80002E069A0612069E66106
:1051A000E06001E0A661E2682046FFF7C9F84FF42D
:1051B000A27739462846FEF7F8F968B139462846FD
:1051C000FEF7F8F9A06938B1A661E661D5F83C159B
:1051D0002046E268FFF7B4F84FF49076314628464F
:1051E000FEF7E3F960B131462846FEF7E3F9012006
:1051F000E860606920B1D5F84C152046FFF73AFE0B
:105200004FF4AC7631462846FEF7CFF900280ED091
:1052100031462846FEF7CEF96069002807D0D5F858
:105220004C1504B02046BDE8F041FFF723BEBDE8B1
:10523000FF8110B51C68121B022A01D2092010BD83
:10524000214400880870000A48701868801C1860A3
:10525000002010BD82780188C07862F31F4141EAC6
:10526000006070470870020A4A70020C8A70000ED3
:10527000C8700420704710B51C4639B130B12CB14C
:105280002368D21A042A03D2092010BD0E2010BDB3
:1052900019440068FFF7E6FF2168084420600020F9
:1052A00010BD10B514688C4201D1092010BD005DFD
:1052B00018701068401C1060002010BD10B51C68EC
:1052C000944201D1092010BD007808551868401C8F
:1052D0001860002010BD70B50D46049C38B132B185
:1052E0002CB121685B1AAB4203D2092070BD0E209D
:1052F00070BD8B1801462A461846FBF7D3F8206884
:1053000028442060002070BD2DE9F05F8346DDE970
:105310000A4A994690460D460846012703E000BF19
:10532000B0FBF8F07F1C4045FAD2B94500D94F4692
:105330005FEACA7012D18CB15FEA8A7002D5B9F106
:10534000000F01D0202607E0302605E03146584600
:10535000641EFCF7B5FA0CB1A742F7D35FF0010663
:10536000B9F1010F02D9A9F1010903E0B5FBF6F08B
:10537000404502D306FB08F6F2E7DFF83C9000BF99
:10538000B5FBF6F000FB165519F800105846FCF76F
:1053900097FAB6FBF8F6002EF2D15FEACA7009D090
:1053A000002C07D0A74205D220215846641EFCF7E6
:1053B00087FAF5E7BDE8F09F5654000070B50C463B
:1053C0000546FCF7A1FA002807D04268002A04D05D
:1053D00021462846BDE87040104770BD00100042CD
:1053E0000103000000200000181F1114060710130D
:1053F0002000002040000020600000200600030084
:10540000F914000007000300F91400001000030065
:10541000F914000013000300F9140000000000500C
:10542000D9380000713B000003000000B8000020E4
:10543000040300200100060000000000F800002026
:10544000A11A0000000000000000000000000000A1
:105450000338FDD870473031323334353637383978
:1054600041424344454600000000000000000000A7
:10547000000000000000000000000000000000002C
:10548000685400008054000004000000556E6B6EEC
:105490006F776E206572726F7220636F64650000B3
:1054A00000000000F85F000001000000A45E0000A2
:1054B00002000000985C000003000000185F00007C
:1054C000040000006C5F0000050000004C5E00005E
:1054D00006000000E85D000007000000545F0000C7
:1054E00008000000605E000009000000C45E0000CB
:1054F0000A000000E05F00000B000000805C00007C
:105500000C000000785E00000D0000004860000004
:105510000E000000445F00000F000000805F0000EC
:1055200010000000B45F0000110000005C6000008B
:10553000120000003060000013000000CC5F00008B
:1055400080000000005E0000810000003C5D000063
:1055500082000000FC5C000083000000DC5C0000B6
:1055600084000000185D000085000000245E00003B
:10557000860000002C5F000090000000C85D000065
:1055800091000000BC5C0000920000008C5E0000F6
:1055900000820000945F000001820000E05E0000D5
:1055A00002820000FC5E000000840000585D0000E4
:1055B000018400000460000002840000A05D00007F
:1055C000038400007C5D0000A92A0000A72A0000D7
:1055D000A12A000000000000000000000000000000
:1055E0000338FDD870470000780400207F000000D9
:1055F000F80400200000000000000000000000008F
:105600000338FDD870470000000000000020004073
:105610000000000000200040000000001600000014
:105620001700000002000000190000000000000048
:10563000010E000000000010040100000000000046
:105640000000000000000000030000000000000057
:105650000000000006000000000000000000000044
:10566000000000000000000000000000000000003A
:10567000010000076056000070560000080000009E
:1056800098560000A856000008000000A856000028
:10569000B8560000080000000000000000000000F4
:1056A000000000000000000070620000786200004E
:1056B00000000000000000000000000000000000EA
:1056C0006862000070620000B8560000C856000012
:1056D00008000000010020001411002080000000DC
:1056E00000404040404040404040414141414140F5
:1056F00040404040404040404040404040404040AA
:105700004005020202020202020202020202020238
:10571000022020202020202020202002020202023D
:105720000202909090909090101010101010101095
:1057300010101010101010101010101002020202A1
:1057400002028888888888880808080808080808E5
:1057500008080808080808080808080802020202E1
:1057600040000000E15600004461746120627573DE
:10577000206572726F72202872657475726E206176
:1057800064647265737320696E2074686520737435
:1057900061636B206672616D65206973206E6F7442
:1057A0002072656C6174656420746F207468652074
:1057B000696E737472756374696F6E207468617456
:1057C0002063617573656420746865206572726F0B
:1057D00072290000446174612062757320657272E1
:1057E0006F72202850432076616C75652073746158
:1057F000636B656420666F722074686520657863EA
:10580000657074696F6E2072657475726E20706F4A
:10581000696E747320746F2074686520696E737488
:1058200072756374696F6E2074686174206361754A
:1058300073656420746865206661756C7429000066
:1058400043617573653A204275734661756C7420C7
:105850006F6E206120766563746F72207461626C74
:1058600065207265616420647572696E6720657871
:1058700063657074696F6E2070726F6365737369AE
:105880006E672E005468652070726F636573736F66
:105890007220686173206578656375746564206142
:1058A0006E2053444956206F722055444956206952
:1058B0006E737472756374696F6E20776974682093
:1058C000612064697669736F72206F662030000012
:1058D0005468652070726F636573736F72206861BE
:1058E0007320617474656D7074656420746F2065D5
:1058F00078656375746520616E20696E7374727566
:105900006374696F6E2074686174206D616B657378
:1059100020696C6C6567616C20757365206F66200B
:10592000746865204550535200000000546865209B
:1059300070726F636573736F722068617320617436
:1059400074656D7074656420616E20696C6C656748
:10595000616C206C6F6164206F66204558435F5214
:10596000455455524E20746F207468652050432C66
:10597000206173206120726573756C74206F6620DE
:10598000616E20696E76616C696420636F6E746508
:1059900078742C206F7220616E20696E76616C695C
:1059A00064204558435F52455455524E2076616CF1
:1059B000756500005468652070726F636573736F5E
:1059C0007220617474656D707465642061206C6F01
:1059D0006164206F722073746F726520617420613E
:1059E000206C6F636174696F6E20746861742064E9
:1059F0006F6573206E6F74207065726D69742074AA
:105A00006865206F7065726174696F6E00000000D8
:105A100041204D656D4D616E616765206661756CF5
:105A200074206F6363757272656420647572696E49
:105A30006720666C6F6174696E672D706F696E7434
:105A4000206C617A7920737461746520707265735B
:105A50006572766174696F6E0000000041206275A6
:105A600073206661756C74206F6363757272656410
:105A700020647572696E6720666C6F6174696E6709
:105A80002D706F696E74206C617A79207374617403
:105A90006520707265736572766174696F6E00005F
:105AA0005468652070726F636573736F72206861EC
:105AB0007320617474656D7074656420746F206503
:105AC00078656375746520616E20756E64656669BE
:105AD0006E656420696E737472756374696F6E00AD
