:020000040001F9
:1020000000370020F92301000124010019220100FA
:10201000052401000724010009240100000000003C
:102020000000000000000000000000000B24010080
:102030000D240100000000000F2401001124010004
:1020400013240100132401003D2B0100132401007F
:102050001324010013240100A92501001324010009
:102060001324010013240100132401001324010090
:102070001324010013240100132401001324010080
:102080001324010049280100132401001324010036
:102090001324010013240100B928010013240100B6
:1020A0001324010013240100132401001324010050
:1020B00013240100132401000000000000000000B0
:1020C0001324010013240100132401001324010030
:1020D0001324010013240100132401000000000058
:1020E00000000000000000000000000000000000F0
:1020F00000000000000000000000000000000000E0
:1021000000000000000000000000000000000000CF
:1021100000000000000000000000000000000000BF
:1021200000000000000000000000000000000000AF
:10213000000000000000000000000000000000009F
:10214000000000000000000000000000000000008F
:10215000000000000000000000000000000000007F
:10216000000000000000000000000000000000006F
:10217000000000000000000000000000000000005F
:10218000000000000000000000000000000000004F
:10219000000000000000000000000000000000003F
:1021A000000000000000000000000000000000002F
:1021B000000000000000000000000000000000001F
:1021C000000000000000000000000000000000000F
:1021D00000000000000000000000000000000000FF
:1021E00000000000000000000000000000000000EF
:1021F00000000000000000000000000000000000DF
:10220000DFF810D000F092F900480047093D0100C6
:10221000AFF3008000370020094B1EF0040F1CBFF5
:10222000EFF309801847EFF308800649064A884211
:1022300001D8904202D88D464FF0000018470000A8
:102240004D260100003700200017002030B450E870
:10225000012F93B2C48923448489A34228BF1B1B46
:102260000489A34202BFBFF32F8F002007E0C3EA17
:10227000020340E80134002CE9D14FF001000A606C
:1022800030BC704750E8012FC2EA024240E8012109
:102290000029F7D1704730B450E8022F1FFAA2F39B
:1022A000C488A34202BFBFF32F8F00200DE0C48972
:1022B00023448489A34228BF1B1BC2EA034340E88E
:1022C0000234002CE8D14FF001000A6030BC7047A6
:1022D00050E8022FC2EA224240E802210029F7D149
:1022E0007047034653E8022FD988B2EB324F4FF0C4
:1022F000000017BF92B241EA014142EA014104E005
:102300005A68B2EB324F08BF012043E80212002A9C
:10231000E8D1704730B4044654E8000F0D4644E855
:102320000053002BF8D1156030BC704730B4044620
:1023300054E8000F40EA010544E80053002BF7D1B0
:10234000156030BC704730B4044654E8000F00EA12
:10235000010544E80053002BF7D1156030BC7047ED
:1023600030B4044654E8000F80EA010544E8005305
:10237000002BF7D1156030BC704730B4044654E8E8
:10238000000F00EB010544E80053002BF7D1156066
:1023900030BC704730B4044654E8000FA0EB010590
:1023A00044E80053002BF7D1156030BC704770B47F
:1023B00004464FF0000054E8006F0D68AE4207BFBE
:1023C00044E80023012044E800630E60002B1CBF9A
:1023D0000020F0E770BC704730B4044654E8000FAA
:1023E00088422CBF451A054644E80053002BF5D11E
:1023F000156030BC7047000006488047064800471B
:10240000FEE7FEE7FEE7FEE7FEE7FEE7FEE7FEE7A4
:10241000FEE7FEE7BD280100012201002DE9F05F83
:102420000546002092469B46884606468146402443
:102430001BE0284641464746224600F067F85346CF
:102440005A46C01A914110D311461846224600F050
:1024500016F82D1A67EB01084F462246012000218D
:1024600000F00DF817EB00094E41201EA4F1010405
:10247000DFDC484631462A464346BDE8F09F202A25
:1024800004DB203A00FA02F1002070479140C2F1CB
:10249000200320FA03F31943904070470048704727
:1024A0005459010040EA01039B0703D009E008C921
:1024B000121F08C0042AFAD203E011F8013B00F809
:1024C000013B521EF9D27047D2B201E000F8012B55
:1024D000491EFBD270470022F6E710B513460A46A4
:1024E00004461946FFF7F0FF204610BD421C10F8C5
:1024F000011B0029FBD1801A7047034611F8012BFC
:1025000000F8012B002AF9D118467047202A04DB75
:10251000203A21FA02F00021704721FA02F3D0405C
:10252000C2F120029140084319467047064C074DFE
:1025300006E0E06840F0010394E807009847103493
:10254000AC42F6D3FFF760FE486301006863010008
:1025500070B58C1810F8015B15F0070301D110F865
:10256000013B2A1106D110F8012B03E010F8016B92
:1025700001F8016B5B1EF9D12B0705D40023521E15
:102580000DD401F8013BFAE710F8013BCB1A921C7D
:1025900003E013F8015B01F8015B521EF9D5A1427B
:1025A000D8D3002070BD00002DE9F8430025DFF8E6
:1025B00094804FF4807601242F460095304601F038
:1025C00077FE38B1D8F80403204203D0304601F03A
:1025D00065FE2543361D64007F1CB6B2082FEDD37F
:1025E0004FF4BE74204601F063FE48B1204601F06E
:1025F00055FE45F000456A460121002001F01EFE0F
:1026000015F0FF0F16D0012600242E420ED008EB45
:102610008401D1F81005D1F81015C0F304200A4A3E
:10262000C1F3014152F8242002B190477600641CA6
:10263000082CEAD3002D02DA684602F079FCBDE8E6
:10264000F883000000600040540D00202DE9FC4795
:10265000814602F0B7F800BF01F0F8FE0028FBD178
:102660002E485FEA090507682D482E494FF00106FC
:10267000A0EB01004FEAD00006EB004417D0204643
:1026800029A1AA6902F000F8D5E90201CDE900010B
:10269000D5E9002320462AA102F006F8E869009057
:1026A000D5E90423204634A101F0F5FF03E02046DC
:1026B0003BA101F0E5FF1948001D0068800703D524
:1026C0002046444901F0DCFFDFF80C81002500BF03
:1026D00006FA05F0384206D058F825201AB12046EF
:1026E0003EA101F0D1FF6D1C1A2DF1D3380606D59D
:1026F0000A480C30026820463BA101F0C5FF3804AF
:1027000006D506481030026820463FA101F0BCFF04
:10271000484600F087F8BDE8FC87000028ED00E09F
:10272000A8630100786301004841524420464155A6
:102730004C54206174203078253038580000000057
:10274000202052303A20203078253038582020522E
:10275000313A2020307825303858202052323A2023
:1027600020307825303858202052333A20203078D5
:10277000253038580000000020205231323A2030F5
:10278000782530385820204C523A20203078253097
:10279000385820205053523A20307825303858008D
:1027A000537461636B2076696F6C6174696F6E3A04
:1027B00020737461636B20706F696E746572206F33
:1027C00075747369646520737461636B20617265ED
:1027D000612E0000305A0100700C002043617573B7
:1027E000653A2025732E00004D656D4D616E616761
:1027F00065204661756C7420416464726573733A38
:102800002030782530385800427573204661756C49
:102810007420416464726573733A203078253038CF
:1028200058000000BFF34F8F05480168054A01F4C6
:10283000E06111430160BFF34F8F00BFFDE700006F
:102840000CED00E00400FA0502490248091F09687E
:1028500000680847680C002000F076B970B50E4695
:10286000144900EB400001EBC0051446E86A183536
:1028700020B101280FD0022805D113E0284600F02E
:1028800097F9A04201D2002411E0224631462846A1
:1028900000F0C6F90BE0284600F08AF9A042F4D215
:1028A0000446F2E73146284600F08DF904462046FA
:1028B00070BD0000F813002002F05AB9F0B590493D
:1028C00090484FF080550B68D5F830210078D5F846
:1028D0003411541CC0F3031006D09446012700267F
:1028E000BCF1060F03D00AE003F0FF0CF6E7B5F8E1
:1028F0002443DFF814C2C4F30424CCF80040DCB253
:10290000062C06D1032804D1DFF804C27F4CCCF892
:102910007440541C04D09446BCF1060F03D00AE066
:1029200003F0FF0CF8E7D5F84442DFF8E8C1C4F340
:102930004234CCF80040DCB2062C08D1032806D182
:10294000754CD4F800C02CF0807CC4F800C0541C36
:1029500004D09446BCF1060F03D00BE003F0FF0C4B
:10296000F8E74FF08044C4F80C61C4F81061694C7A
:10297000241F2660DCB2062C08D1032806D1DFF81C
:1029800094C103240CF1640CCCF80040DCB2062C9A
:1029900010D103280ED1DFF884C10524CCF8004003
:1029A0005E4C783427605D4C083426600CF10406D8
:1029B0003F243460541C04D016460C46062E03D027
:1029C0005BE0DEB20446F9E7E41E012C55D9544C15
:1029D0002468544E3460524C241D2468361D3460E3
:1029E0004F4C08342468361D34604D4C0C34246838
:1029F000361D34604A4C10342468361D3460484C0F
:102A000014342468361D3460454C18342468454E0F
:102A100020363460424C1C342468361D3460404CEF
:102A200020342468361D34603D4C24342468361D1F
:102A300034603B4C28342468361D3460384C2C34C8
:102A40002468361D3460364C30342468354E4036A8
:102A50003460334C34342468361D3460304C3834A0
:102A60002468361D34602E4C3C342468361D346096
:102A70002B4C40342468361D3460541C03D0164659
:102A8000062E02D007E0DEB2FAE7D5F85842264E0D
:102A900004F04F043460541C03D01346062B02D0BC
:102AA00008E0DBB2FAE721480368DB0702D06FF0E9
:102AB00001030360062A07D1C91E022904D91C4854
:102AC000016841F48061016013487438016841F481
:102AD00070010160BFF34F8FBFF36F8FD5E94C10CA
:102AE000062909D1C01E032806D94FF01020D0F8BE
:102AF000080208491C3108600F490E480860F0BD03
:102B0000E00F00F0E80F00F0403501400DF0ADBAE5
:102B100000C007403C050040FCED00E010560040BE
:102B20000404001020C50040E40E004000040040F2
:102B30003C1700400090D003440D0020014800687D
:102B400000470000000C002010B5124C022020614C
:102B5000606111A0A06104F17800E0614FF40070A1
:102B600020620020A06260620BA1A164E06204F513
:102B70001E71E1641021A065C4E91410E06509A18B
:102B8000E01DFFF7BAFC08A12046FFF7B6FC2020A5
:102B9000A07110BDF81300205465726D696E616CF0
:102BA000000000005254540053454747455200006E
:102BB0000269C1688A4203D88068401A104400E064
:102BC000501A401E70472DE9F047C46817468946E1
:102BD00006464FF000083069A04201D9051B02E00B
:102BE000B168201A0D1AB0686D1E001BA84200D8EB
:102BF0000546BD4200D33D4670682A4620444946FA
:102C0000FFF750FCB0687F1B2C44A844A944A042A5
:102C100000D10024F460002FDDD14046BDE8F087EC
:102C20002DE9F04104468846D4E90207C51BE16856
:102C3000606816460844B54206D94146FFF732FCA3
:102C4000B819E060BDE8F0812A464146FFF72AFC4A
:102C5000761B08EB050132466068FFF723FCE6604F
:102C6000F0E702E008C8121F08C1002AFAD1704735
:102C70007047002001E001C1121F002AFBD17047FC
:102C80000121202803DA81400548014003E0402863
:102C900002DA2038814009B10120704700207047D6
:102CA000FC06FFBD022000F0F5B910B5044683789C
:102CB000827A41780078C2DF002813D123796279C3
:102CC000E1882078D3DF00280CD1E1782078CDDFAF
:102CD000002807D1A178C90704D12189002901D092
:102CE0002078D1DF10BD000090F82D10032909D005
:102CF000802909D1C178012906D10449807A087058
:102D000000F05EBF00F0D0BE70470000800B0020D6
:102D10000EB50B4A07CA8DE807004FF08050006ED1
:102D2000ADF806006846FFF7C0FF08B100F09EF856
:102D300000210846C4DF002801D000F097F80EBD3E
:102D40003056010070B50024064D06E06868012188
:102D500010F8340001F0C2FF641C28788442F5D3D7
:102D6000002070BD080C0020F8B516460C4605463C
:102D70000A2A01D20720F8BD02F0AAF818B902F019
:102D80006DF80028F7D1134F102113487D603C7077
:102D9000BE60FFF7A0FB0020C7E904000F4E0DE066
:102DA00005EBC4003168009181788DF8011000783E
:102DB0000B4A694601F0E2FF0028DCD1641EE4B250
:102DC000EED2BDE8F84005480021064A001D00F09B
:102DD0005FB80000080C0020B00D00207456010000
:102DE0006D3A01006536010010B572B601F0EAFCDB
:102DF00001F02CFB0028FBD111481249401AC408ED
:102E0000012000EB044010A101F03AFC11480068D9
:102E1000C00700D000BE022000EB04400EA101F06C
:102E20002FFCBFF34F8F0B48E43801680E4A01F4C2
:102E3000E06111430160BFF34F8F00BFFDE7000069
:102E4000C063010078630100466174616C206572A3
:102E5000726F7200F0ED00E053797374656D20724B
:102E600065736574000000000400FA050EB50021CA
:102E70000091CDE901106A4644F20100FFF7B4FF6A
:102E80000EBD0000014800F054BC0000480C0020BA
:102E900010B55AB100684FF0FF3401294261C0E912
:102EA000024400D000210161002010BD072010BDA8
:102EB00038B5114808235822416800910F4900682D
:102EC00000F0C6FF002815D10D4A69460D4800F0F4
:102ED00035FC04000ED101210A4800F0AAFC0123B0
:102EE000094A1946074800F0FCFB06490120083949
:102EF0000870204638BD00007C560100D00D00202F
:102F0000C9500100480C0020FFFF7F00F8B50446BF
:102F1000002617460D468DF80060684600F042F81E
:102F2000D4E90201C04370EA010005D09DF8000019
:102F300000F05CF80020F8BD00F07EFD4019714102
:102F4000C4E902019DF8000000F050F8A761206973
:102F500000B125612146BDE8F840002002F0D6BA54
:102F600038B5044600208DF80000684600F01AF8D5
:102F7000D4E90201C04370EA01000DD04FF0FF30E8
:102F8000C4E902009DF8000000F030F82146BDE8D9
:102F90003840012002F0BABA9DF8000000F026F88F
:102FA000002038BD30B5EFF3108172B60D4A946839
:102FB000012324B10370002900D162B630BD9360B3
:102FC0004FF0E023D3F88051074C25401560C3F83B
:102FD0008041D3F8844154605A17C3F884210022F9
:102FE0000270E8E7280E0020FC06FFBD0B498A6846
:102FF000002A11D000280FD1EFF3108072B60B68B1
:103000004FF0E022C2F800314B68C2F804310022D0
:103010008A60002800D162B670470000280E0020A8
:103020000649095C4FF0A040D0F81005C84010F0E8
:10303000010000D0012080F00100704740560100DF
:103040002DE9FC410646C0074FF000050ED0104F99
:1030500000240122385D009500231146019501F0FE
:10306000B8F8641C042CF4D300F046F8B0070DD572
:10307000074E0024361D0022305D032300951146C3
:10308000019501F0A6F8641C042CF4D3BDE8FC8182
:103090003C56010007490B5C4FF0A041D1F80425D4
:1030A0000120984020EA0203C1F808351040C1F819
:1030B0000C0570473C5601000249085C012101F0F3
:1030C000E2B800003C5601000249085C002101F012
:1030D000DAB800003C5601000649095C4FF0A040F8
:1030E000D0F80405C84010F0010000D0012080F0A5
:1030F000010070473C56010010B500242046FFF740
:10310000DBFF641C042CF9D310BD10B5002420464D
:10311000FFF7DAFF641C042CF9D310BD10B502468A
:10312000064B4FF0FF3000215C5C944201D1084611
:1031300010BD491C0429F7D310BD00004056010002
:103140002DE9F0470D468146FFF7E8FF04460428C5
:1031500036D2DFF874801B481C4EA8F10C0725B34B
:10316000012D0ED0022D2BD104EB440030444578C4
:10317000002D25D0B968002922D02846BDE8F047A7
:10318000084704EB4401755C0E44717849B10E4A5E
:103190004FF48041093A8068FFF7B8FE08B987F814
:1031A0000390B17808F80410E2E78068FFF7D8FED2
:1031B00004EB4401314418F804008D78A842D7D0BC
:1031C000BDE8F08744560100980B0020480D002010
:1031D000042801D2FFF724BF0020704770B50023F8
:1031E000042810D20D4D00EB4004012A02D1012920
:1031F0000CD00022094E00EB4000304461B101299F
:1032000006D0022906D00723184670BD0E30C2B280
:103210002A55F9E74270F7E78270F5E7480D00207C
:1032200070B506461E480024C0E90161B00720D5EC
:103230000025012211462846FFF7D0FF6D1C0446E9
:10324000042D02D2002CF4D013E094B940F23332B2
:1032500004211448FFF788FD04000AD1FFF772FD2E
:10326000040006D10F48104A0021001FFFF710FE8E
:103270000446F00712D00120FFF7E2FE74B90948B6
:103280000A4A00210C38FFF703FE040006D1054866
:10329000074A01210838FFF7FBFD0446204670BDB0
:1032A0008C0B002050560100D13501004D3C01002F
:1032B000A52C01002DE9F05F6E4C054600266078D4
:1032C000B34618B184F801B000F0A8FC6A4F4FF47F
:1032D0007A694FF4C87A4FF00108182D69D2DFE8F7
:1032E00005F00C1313384754696E727B727BC584EA
:1032F00084848484B3B6B9BCC5C500F08FFC38683B
:10330000FFF72EFE06465CE00020FFF7E5FE0028F2
:103310004FF0000008D0FFF7CFFE022D02D14FF48E
:10332000E16008E0484606E0FFF7CEFE022D01D13D
:10333000C82000E05046410CC0034FF47A72801858
:1033400041F10001257052000023FFF767F80146A4
:103350002AE00020FFF7C0FE00284FF0000004D054
:10336000FFF7AAFE4FF44870E5E7FFF7ADFEDFE791
:103370000020FFF7B1FE00284FF0000002D0FFF759
:103380009BFECFE7FFF7A0FED4E70020FFF7A4FEE7
:1033900000284FF0000002D0FFF78EFE01E0FFF79B
:1033A00093FE257040F6CD4100223868FFF7AEFD50
:1033B000064646E00020FFF76DFE257008E000207D
:1033C00051E025703DE084F801800120FFF762FEA6
:1033D000002240F26661E8E784F801800120FFF7EF
:1033E00059FE00224FF40051DFE77868FFF7B8FD7F
:1033F0000646D5F1110000D02EB10220FFF75CFE89
:1034000084F802B01DE0012816D980B2C8214843D3
:10341000C117C90341EA5041C0034FF47A728018C2
:1034200041F1000152000023FEF7F8FF014600229F
:103430007868FFF76BFD06460220FFF745FE84F82B
:1034400002803046BDE8F09F00F0E8FBB9E700F0ED
:10345000E5FBB4E700F0E2FB04E000F0DFFB002056
:10346000FFF732FE0120FFF72FFEAAE7FFF74DFE20
:10347000A7E700008C0B0020445601002DE9F84F0F
:103480000546861C00208DF8000091460F464FF03F
:10349000010A6846FFF786FD1B4C04F21C48606871
:1034A0003860D4E90101194F401A3968081A0EE052
:1034B0000121404600F011FD00F0D4FB01464046DA
:1034C00000F00BFDD4E90101401A3968081A401CCC
:1034D0008642EDD8B9F1000F03D0052065F38910BD
:1034E00002E0062065F39F5061683A68114004EBE2
:1034F0008101C8606068304460609DF80000FFF79B
:1035000075FD5046BDE8F88FD80F0020EC0C002068
:1035100070B50D4604460A2902D10D21FFF7F8FFC8
:10352000A0682268411CA1601554D4E901018142C0
:1035300004D32046BDE8704000F052BD70BD0000CD
:10354000044881684068814201D101207047002011
:1035500070470000D80F0020034630B5074800210F
:103560000478426806E000BF02EBC10005789D4286
:1035700003D0491CA142F7DB002030BD080C00201D
:1035800010B5124CFF2060700020FFF721FE18B12B
:10359000607800F0FE0060700120FFF719FE18B19E
:1035A000607800F0FD0060700220FFF711FE18B196
:1035B000607800F0FB0060700320FFF709FE002830
:1035C00003D0607800F0F700607010BD800B002021
:1035D00000780221FFF7B4BD05494FF0FF320828FB
:1035E00041F8202002D3084480F8482070470000AA
:1035F000540D0020F0B54FF0FF3512B1002308261E
:1036000001E008230C260C4C05E000BF54F82370A1
:103610007F1C04D05B1CB342F8D32846F0BD2618AB
:103620005DB286F8305044F82310002AF5D1E11835
:1036300081F84800F1E70000540D002002490844D9
:1036400090F9300070470000540D002010B5D0E90B
:103650000234D1E90220D11AA04101D3012010BDCA
:10366000002010BD70B500240F4D10E0686800EB1D
:10367000C406307801F0E8FB7178012901D00121FE
:1036800000E000214140307800F05CF9641C2878AB
:103690008442EBDBD5E90401084303D0BDE8704068
:1036A00001F050BF70BD0000080C002010B50021D3
:1036B000024800F01DFC80F3100010BDF413002040
:1036C0004FF480328A400168C1F848230068C0F88E
:1036D000082370474FF4A07202EB810189B200F019
:1036E000A1B92DE9F04105460E464FF4A07000EB5C
:1036F000860081B228684FF48034B440984622F0A6
:103700007F47C0F808432868C0F84843286801F09C
:103710007BF9286800EB8600C0F840752868C0F87F
:103720004443B8F1000F02D02868C0F80443BDE854
:10373000F0810068D0F804057047000070B5437947
:10374000234C44F823204279231D03EBC202224C70
:103750001579204A121BD4082DB10825022000EB50
:1037600004401EA130E005680A88C5F8082590F9D4
:1037700004208978002A4FEA411104DB02F1E0229B
:1037800082F8001405E002F00F0202F1E02282F854
:10379000141D90F904100122002909DB01F01F0516
:1037A00002FA05F54909890001F1E021C1F800514B
:1037B0004179002503EBC1010A71417943F83100D9
:1037C000032000EB04400EA100F05AFF284670BD14
:1037D000640C0020A0630100786301005254432070
:1037E000696E7374616E636520616C726561647982
:1037F00020696E697469616C697A65642E000000E5
:103800005254433A20696E697469616C697A6564DF
:103810002E00000090F90400002809DB00F01F02D0
:10382000012191404009800000F1E020C0F8001221
:1038300070470A46022100F07BB84FF4827100F015
:10384000F1B8006801210160704700680121416002
:1038500070472DE9F05F07460C464FF4A07000EB6F
:1038600084001FFA80FA38684FF48036A6409B46E1
:1038700022F07F45C0F848633868C0F808633868AC
:10388000D0F8048500EB8402D2F84095C2F8408558
:103890005146386801F0B8F8A9EB080020F07F40E5
:1038A000012806D1102001F011FA5146386801F0C4
:1038B000ABF83868D0F80485C0F84463A5EB08017C
:1038C00021F07F413868012900EB840010D0C0F856
:1038D00040553868D0F804156FF07F4C6A1A521EB4
:1038E00022F07F42ACEB0B03934217D362B118E096
:1038F0006D1CC0F84055102001F0E8F93868D0F888
:10390000040540450AD10CE000EB84006D1CC0F8B2
:1039100040553868D0F80405884202D00D20BDE833
:10392000F09F01223146384600F002F80020F6E709
:103930000368C3F84413002A02D00068C0F80413D7
:10394000704700002DE9F84F0E463449804601EBE0
:103950005001C007097801D00F0901E001F00F07FD
:103960004FF00009424601204946FEF788FDDFF886
:10397000B0A004460D46052F4ED2DFE807F003162F
:103980001B282C00002E47D00121404601F0CEFC20
:103990008DF800906846FFF705FB5046D0E9041209
:1039A0000C431543CAE9044532E00EB1022114E08C
:1039B000002112E04EB10321404601F0B7FC404621
:1039C000BDE8F84F012101F023BE012105E0002EE2
:1039D00022D1042101E02EB103214046BDE8F84F79
:1039E00001F0A4BC0021404601F0A0FC00214046AB
:1039F00001F00EFE8DF800906846FFF7D3FA5046AE
:103A0000E243D0E904341A4024EA0501CAE904215A
:103A10009DF80000FFF7EAFABDE8F88FB00D00202E
:103A2000080C002010B5006842581AB100F0ECFFF5
:103A3000012010BD002010BD10B50B48FFF779FE26
:103A4000094A083AD2E90434C018D2E9063244F1EE
:103A50000001C31A71EB020204D24FF08072801889
:103A600041F1000110BD0000480C002010B5C0B2AB
:103A7000FFF772FD0446007801F0E6F90146607830
:103A8000012801D0012000E0002090EA010F08D0B9
:103A90000449D1E90401084303D1BDE8104001F015
:103AA00051BD10BD080C002010B5FFF769FD0C4892
:103AB000012102460170FF2141708170C1700171C6
:103AC00041718171811E4978C17108210020C7DFD1
:103AD000002803D0BDE81040FFF7C8B910BD0000B2
:103AE000820B00202DE9FC5F0E008346DDE90C47C8
:103AF000C6F1000098469246814600D4084601254A
:103B000003E000BF90FBFAF06D1C5045FADAA845BF
:103B100000D9454624B1002E01DB780700D5641E8C
:103B2000B80702D5B8F1000F0AD0F80708D13CB1A8
:103B3000A54205D220215846641EFFF7E9FCF6E7AE
:103B4000002E02DA4E462D2102E0780703D52B2104
:103B50005846FFF7DDFC07F0030002280BD1B8F14F
:103B6000000F08D13CB1A54205D230215846641E51
:103B7000FFF7CEFCF6E7CDE9004743465246314613
:103B8000584601F0EBFCBDE8FC9F0246002012689D
:103B9000530713D502F00300012802D002280CD1EC
:103BA00005E0C2F383100B68801C184404E0022374
:103BB000086803EB9252104408600120704700002F
:103BC000154810B50078C043C4B2E0074FF00000BC
:103BD00002D0FFF779FA01E0FFF76EFAA0074FF085
:103BE000010002D5FFF770FA01E0FFF765FA600700
:103BF0004FF0020002D5FFF767FA01E0FFF75CFA29
:103C000020074FF0030003D5BDE81040FFF75CBA72
:103C1000BDE81040FFF750BA800B00200A4810B5ED
:103C2000807860B1002401E0022C06D02046FFF726
:103C300043FA641C042CF7D310BD0324F6E7BDE857
:103C40001040FFF759BA00008C0B0020034801799F
:103C5000C90702D00078FFF72DBB70478C0B0020FE
:103C6000704700002DE9FF410026244800F032F99A
:103C70002248001F074600F02DF9214C2149A06879
:103C800000900D6800E000986946284004EB800031
:103C90000C30FFF77AFF0028F5D101AA009901EA5C
:103CA000050304EB8303491CDB6842F82030401C09
:103CB00000910228F2D3019800F0030001280BD0F4
:103CC000022810D10198032101EB90500099BDF812
:103CD0000A6001EB900005E00198BDF80A60C0F3AE
:103CE000831008440090384600F0F1F808B10098BD
:103CF000A06004B03046BDE8F0810000F013002061
:103D0000D80F0020EC0C00204FF48041002000F080
:103D10002DFD08B1FFF7AAF800F08AFBFFF7C8F8FD
:103D200008B1FFF7A3F800210320FFF779FA08B1E3
:103D3000FFF79CF800F024FE08B1FFF797F800F0B9
:103D4000C9FE08B1FFF792F800F064FE08B1FFF772
:103D50008DF8FEF7DDFF09480949401AC008032124
:103D600001EB004007A100F08BFC00BF00F06EFBF0
:103D70000028FBD100F018FEF8E70000C063010046
:103D800078630100414E5420494F205458206578F3
:103D9000616D706C6520737461727465642E0000CF
:103DA0002DE9F047C5881E1DB6FBF5F78946B6FB21
:103DB000F5F1044605FB176C407916686843DDF899
:103DC00020A0F718001F874200D9C61A166001E02C
:103DD0002468491E0029FBD1A5EB0C078846B74291
:103DE00016D818E004EB0C00001D09EB0803BAF12B
:103DF000000F3A4602D00146184600E01946FEF789
:103E000051FB2468F61B4FF0000CB844B54201D9B1
:103E1000374600E02F46002EE4D1BDE8F0870000D1
:103E200030B5024651B100F0B5FC0021074C08E066
:103E300034F821301568AB4202D11160002030BD4A
:103E4000491C8142F4D3052030BD00000000000071
:103E500010B531B1B2FBF3F403FB14241CB10920FB
:103E600010BD0E2010BD0160002141608160828183
:103E7000C381084610BD70B50C460546FEF7E6F94D
:103E8000002802D021882868084470BD10B50A882F
:103E900049888A4203D1FEF71BFA012010BD002099
:103EA00010BD70B50C460546FEF7F5F9002802D0A6
:103EB00061882868084470BD10B50A8849888A421C
:103EC00003D1FEF7DFF9012010BD002010BD002155
:103ED00000F009B8012100F010B808B56A46FEF7F5
:103EE0004CFA009808BD08B56A46FEF72CFA08BDE2
:103EF00008B56A46FEF70EFA08BD08B56A46FEF731
:103F000015FA009808BD08B56A46FEF743FA00980E
:103F100008BD38B5044600258DF800506846FFF707
:103F200041F821686268086890420ED9401E086016
:103F30000178238AE26801FB0325227A2168101A9E
:103F4000C0B20A79824200D208719DF80000FFF7E2
:103F50004DF8284638BD38B5054600208DF80000DC
:103F60000C466846FFF71EF8E868298A201AB0FB5D
:103F7000F1F12A681068431C136001709DF800007D
:103F8000FFF734F838BD10B530B1017A42680368E4
:103F9000891AC9B21A6006E00E2010BD03681A68BB
:103FA000541C1C601170491EC9B2F7D20068002170
:103FB0000171084610BDC20800F007030120895CAA
:103FC0009840084070470FB408B50399002904D001
:103FD00004AA00926A4600F00FF801B05DF814FBE5
:103FE00010B582680446002A05D0D4E9040321688C
:103FF00098470020A06010BD2DE9FC4791460C00B9
:10400000804676D014F8011B39B125290ED04046E0
:10401000FFF77EFA20780028F4D198F80C000028E9
:1040200067D04046BDE8FC47FFF7DABF0020012219
:1040300021782B291BD02D2902D0302908D102E06C
:1040400040F0010001E040F00200641C002AEFD1C2
:1040500000252A290ED02178A1F130020A2A11D296
:1040600005EB850201EB4205641C303DF1E740F0B1
:104070000400EAE7D9F800100B1DC9F80030096800
:10408000641C0D44217800232E290BD114F8011F44
:10409000A1F130020A2A05D203EB830201EB4203AD
:1040A000303BF3E76C290DD068290BD0692921D06A
:1040B0000BDC252918D0582931D063290ED064296A
:1040C00015D117E014F8011FECE7702969D07329A6
:1040D00032D075291BD0782909D120E0D9F8000009
:1040E000011DC9F8001001784046FFF711FA641C61
:1040F00090E76CE0D9F800100A1DC9F800200968A3
:10410000CDE900500A224046FFF7ECFCEFE7D9F872
:1041100000100A1DC9F8002009680A2206E0D9F833
:1041200000100A1DC9F8002009681022CDE90050CE
:10413000404601F013FADAE7D9F8001000270A1D0B
:10414000C9F800200E68C00705D112E04046761C71
:104150007F1CFFF7DDF931780029F7D104E0202139
:1041600040466D1EFFF7D4F9BD42C0D9002DF6D1EF
:10417000BDE74EB13046FEF7B9F9074604E020210D
:1041800040466D1EFFF7C4F9BD4206D9002DF6D199
:1041900003E04046761CFFF7BBF931780029F8D1DF
:1041A000A5E7D9F80000011DC9F800100568302105
:1041B0004046FFF7ADF978214046FFF7A9F90820FE
:1041C0000021CDE90001034610222946B0E7BDE8F1
:1041D000FC8770B541EA4201DDE904564FF0A04486
:1041E00041EA830141EA052104EB800041EA0641EE
:1041F000C0F8001770BD70B541EA4201DDE9045610
:104200004FF0A04441EA830141EA052104EB80001C
:1042100041EA0641C0F8001770BD4FF0A04202EB22
:104220008000D0F8002722F44032C0F80027D0F8F0
:10423000002742EA0141C0F80017704738B5094B22
:1042400044181B6800936B4608E000BF53F8201029
:10425000D1F8205520C2C1F82055401C8442F5D821
:1042600038BD00007056010042094FF0000100D136
:10427000491E00F01F00012282400A4201D00120A5
:1042800070470020704701224FF0A043824011B1D7
:10429000C3F808257047C3F80C257047034908B5D3
:1042A0000844002101600068009008BD00600040E3
:1042B00002494058012800D00020704700600040AB
:1042C00030B5154A01460020D2F8104423460AE0D2
:1042D000DB681D79854205D1401C0A28F6DB4FF0CA
:1042E000FF3030BD1B68002BF2D1431CF9D0CB68E6
:1042F0001871D2F8103443B1DB68CC681B682360B6
:10430000D2F81024D268116030BDC2F81014C96808
:1043100000220A6030BD0000D80F00207047FEF771
:104320009BBA704708B5034A00924023024A00F046
:1043300005F808BD79520100400E0020F0B595B097
:104340001C4615460E4608461A9F00F0F3FA18213F
:1043500009A8FEF7C0F80E97CDE9095400230822FA
:1043600003A9304600F0FBFA05980690BDF810004E
:10437000ADF81C00BDF81200ADF81E0000208DF84D
:1043800021000399082501F00300012802D002282A
:1043900016D02FE0C1F3C200C1F383178C0A8DF849
:1043A0002000BA002B460FA9304600F0D8FA09A821
:1043B000009006AB3A460FA9204600F017FA19E024
:1043C000C1F3C2008C0D8DF82000082C01D22746C5
:1043D00000E008272B463A460FA9304600F0BFFA06
:1043E0003D44E41B09AB06AA39460FA800F066F964
:1043F000002CEAD1304600F0A3FA15B0F0BD000061
:104400000A4A012902EBC00007D0022907D003297C
:1044100007D0042907D000207047022070470420ED
:104420007047007970474079704700007863010059
:1044300010B5FFF774FF04210348FFF741FF02495D
:104440000120C968487110BD686301002DE9F04F73
:104450008DB0FFF775F818B100200DB0BDE8F08FF2
:104460007D4C4FF0000BC4F818B4BFF34F8F7B495D
:10447000A06802900D68D846284004EB80000BE04D
:10448000D4F8180470B961680298814201D8A1601B
:10449000E2E7284004EB80000C3002A9FFF775FB2F
:1044A0000028EDD1002009AA029901EA050304EBD6
:1044B0008303491CDB6842F82030401C029102282B
:1044C000F2D3099800F00301022902D001294DD04E
:1044D000A8E0810D50228946B2EB905F00D85021B0
:1044E0000E4666F39F50099008315D4800F0D9F9F7
:1044F000070077D000F01EFA4346082209A9384683
:1045000000F035FA029908F1080A2940681A80007B
:10451000001D864223D9504D0C3530B1C2B204EB98
:104520008101301A90460C3104E02946F2B2002590
:1045300090462846C6B25346384600F018FA0AEBB1
:1045400008032DB1324629464FEA070000F00FFA62
:10455000029909F1030001EB9000029039E004EBAD
:1045600081015346324638460C31EFE7C0F38311E0
:10457000062900D3062161F389100990C0F3831046
:10458000801C8100364800F08CF907004AD000F00A
:10459000D1F94346082209A9384600F0E8F908F1A4
:1045A000080800260FE00298434600EA0501401C77
:1045B00004EB81010290042238460C3100F0D7F957
:1045C00008F10408761C0998C0F38310B042EAD8B9
:1045D00047B1D4F81054D4F8180478B1384600F034
:1045E000AFF934E01EE0E8684079012804D12A6878
:1045F0002846394612689047E8680568002DF2D1D0
:10460000384600F09DF98DF800B06846FEF7CAFC08
:10461000D4F8180408B90298A0609DF80000FEF7CD
:10462000E5FC14E0D4F8104405E0216820468968D0
:104630008847E0680468002CF7D10A480A49401A04
:10464000C008022101EB004008A100F019F8FEF7B4
:1046500077FF80F0010000E7D80F0020EC0C00206D
:10466000E0630100C0630100786301004261636B95
:10467000656E647320666C75736865640000000085
:1046800000231A4600F06ABE08B5012300926A466C
:1046900000F064FE08BD3EB5069C8DE81C000323B7
:1046A0006A4600F05BFE3EBD7FB5DDE908458DE85A
:1046B0003C0004236A4600F051FE7FBD2DE9F0471F
:1046C0000E4680461C469246082940D894F80C9025
:1046D000002020731946104600F0AAFC0025B542C0
:1046E00006D218F805201BA12046FFF76CFC03E05A
:1046F0001AA12046FFF767FC6D1C082DEFD318A107
:104700002046FFF760FC0025B54212D218F805706C
:104710007E2F08D8FDF7C2FE0068C05D10F03E0F86
:1047200001D03A4600E02E220EA12046FFF74BFCB6
:1047300003E00DA12046FFF746FC6D1C082DE3D3D6
:1047400001222146504600F055FC84F80C90BDE84B
:10475000F087000020253032780000002020200063
:104760007C0000002563000020000000064910B511
:1047700000200870054800F0E1F8002803D1044843
:1047800000F034F9002010BDD80F0020E0630100D4
:104790002858010002480349401AC0087047000029
:1047A000E06301007863010013B56846FFF738FB4A
:1047B00008B100201CBD0248009950F831001CBD12
:1047C0007863010070B508480125D0F810440570E1
:1047D00007E0E06845712168204649688847E0683D
:1047E0000468002CF5D170BDD80F00202DE9FF47DB
:1047F00081460C9D00200C462F7B28739846164658
:104800002946184600F014FC072E42D2DFE806F0D5
:1048100004090F161F2A360049462846FFF7D3FB26
:1048200037E0494628462268FFF7CDFB31E0D4E95E
:10483000002349462846FFF7C6FB2AE0A0680090FF
:10484000D4E9002349462846FFF7BDFB21E0D4E91F
:104850000201CDE90001D4E9002349462846FFF7CB
:10486000B2FB16E004F1080007C88DE80700D4E9A0
:10487000002349462846FFF7A6FB0AE004F108009A
:104880000FC88DE80F00D4E9002349462846FFF7FA
:104890009AFB00222946404600F0ACFB2F73BDE88E
:1048A000FF872DE9F041058A80462D1F4819C01C5D
:1048B000B0FBF5F0C6B24046FFF72BFB041E19D043
:1048C0000020207101206071E58000272546761EBA
:1048D000C4F800800BE04046FFF71BFB60B1617934
:1048E000491C6171286005467F1CC0F80080B742F2
:1048F000F1D32046BDE8F081204600F002F8002008
:10490000F8E72DE9F041457901466B1E002201E0F0
:104910000968521C9A42FBD30F680146002605E045
:1049200038460C68FFF717FB2146761CAE42F7D3DA
:10493000BDE8F0810121001DFFF7CFBAFFF723BBCF
:1049400010B504460121001DFFF7DDFA10F0FF0F3E
:1049500004D12046BDE81040FFF7D3BF10BD1CB501
:1049600001920122009201AAFFF71AFA1CBD1CB5A0
:1049700001920022009201AAFFF712FA1CBD00006A
:10498000064910B500204870091D0860BFF35F8F0D
:104990000349044800F022F9002010BDD80C002083
:1049A000C0560100340E002008B500208DF800002C
:1049B0006846FEF7F7FAF1EE100A20F09F00E1EEEC
:1049C000100ABFF35F8F08494020C1F880029DF8AC
:1049D0000000FEF70BFB00F0DDF808B141DF08BD79
:1049E00020BF40BF20BF08BD04E000E08268002176
:1049F000916082681161826851618268D1608268C9
:104A0000516080680160704708B5002242504058EC
:104A1000009008BD3EB50D4A07CA8DE807006846FC
:104A2000FADF04004FF001050DD000F045F9024611
:104A300007480849401AC00805EB004006A1FFF7E7
:104A400023FE20463EBD0C480570FAE7A858010039
:104A5000D06301007863010073645F616E745F6509
:104A60006E61626C6528292072657475726E65646A
:104A70002025732E00000000430D002030B51348A0
:104A80008FB0007800281ED00DF12D040BAD6A46C2
:104A900021462846C1DF30B1052814D00FB0BDE84B
:104AA0003040FEF7E3B90A490CA800F097F806E099
:104AB000D0E90021684690470CA800F0A6F80E98AF
:104AC0000028E4D0F4E70FB030BD0000430D002013
:104AD0009C5801007CB5194C207808B108207CBD99
:104AE0000120A070002000F099FB11281AD00020AE
:104AF00000F0ACFB12480026006801908DF80060C1
:104B00006846FEF74FFA0FA2184901A810DF05000A
:104B10000AD0002020709DF80000FEF767FA2DB142
:104B200028467CBD00207CBD0120F3E7A67066709E
:104B300000F0CAFB012000F089FBF3E7400D0020E4
:104B400044580100333833312D353231642D376408
:104B500066392D323464382D656666332D34363728
:104B6000622D323235662D6130306500E92D01004D
:104B70000EB50749684600F031F805E0D0E90010AD
:104B80008847684600F041F802980028F6D10EBD2B
:104B9000605801000148007870470000400D002077
:104BA0001FB568464BDF30B1052814D004B0BDE80E
:104BB0001040FEF75BB9084901A800F00FF806E0C5
:104BC000D0E900210098904701A800F01EF8039852
:104BD0000028E6D0F4E71FBDC45801000160096851
:104BE0004160AFF3008010B5D0E9002153689942CD
:104BF00001D1002104E0D1E90034A34202D01946DA
:104C0000816010BD08314160F0E7816800290BD058
:104C1000026892680A44826041684B689A4203D1F4
:104C200008314160FFF7DFBF704770B50D4606469B
:104C3000446804E0B2682946904718B124682068A7
:104C40000028F7D120682860256070BD40680068A2
:104C5000704741680868002801D002680A60704700
:104C600002460020526806E08B4203D108681060BB
:104C7000012070471A461368002BF5D170470000D9
:104C80000C4A10B502F594730EE0991AC91001EBA5
:104C9000D171491002EBC1010C68844201D90B4665
:104CA00002E005D201F108029A42EED3002010BDC5
:104CB000486810BDE056010000B5FFF7E1FF00288D
:104CC00000D1014800BD0000CC560100002802D0F0
:104CD0000149800108477047915601002DE9F041D4
:104CE0000E46054600F00CF90028284619D0FEF7BC
:104CF000A5FC083800F076F9032802D001280ED070
:104D000007E04FF0A040D0F81005E84010F0010F88
:104D100005D003212846BDE8F041FFF77EBA022105
:104D2000F8E700F0F9F8002822D02846FEF786FCC4
:104D300004464FF4807000EB84000E4F81B207EB05
:104D40008400D0F8102542F00102C0F81025084672
:104D5000FFF7A4FA002E0BD02846FEF76FFC064999
:104D600051F82000002803D00120A040C7F8040318
:104D7000BDE8F08100600040540D00202DE9FC41A9
:104D8000DFF8B880044608EB0400002790F93000F3
:104D90001346C0170E46401C01D008274AE0B078E1
:104DA0001946C0F340022046FEF724FC0546401C8D
:104DB0003FD0B078410717D4C0070AD04FF0A040C9
:104DC00000EB8400D0F8001721F00201C0F80017B2
:104DD00007E000217378204600910A460191FFF711
:104DE0000AFA204600F07EF8B078800718D51448FB
:104DF000317800EB8500D0F81025124B1A40C0F82E
:104E000010254FF4F8524FF4403302EA042203EA2B
:104E100001410A43D0F810150A43C0F8102509E0F3
:104E200008EB0500327810F8481F41EA8211017042
:104E300000E004273846BDE8FC810000540D002046
:104E400000600040FFE0FCFF4FF0A041D1F81015DA
:104E5000C14011F0010000D00120704770B5194D1C
:104E600095F8580008B1082070BD0024661E204641
:104E7000FFF7FAF910B1281980F83060641CE4B229
:104E8000202CF4D300242046FEF7A6FB641CE4B2D9
:104E90000C2CF8D300200D4968650B4CC02081F81C
:104EA000000401264020891FC1F800014FF4BE70A4
:104EB000FFF7F4F9A004C4F8040385F85860002053
:104EC00070BD0000540D00200060004006E000E0CE
:104ED000034890F85800002800D0012070470000D7
:104EE000540D002010B50549C20800F00703885C86
:104EF00001249C402043885410BD0000A80D0020D0
:104F00000449084490F93000082801DB012070476B
:104F100000207047540D00200449084490F93000E7
:104F2000082801D20120704700207047540D00204E
:104F30002DE9F05F2A4F06464FF0A04A4FF0010BD3
:104F40000024381990F95010491C3CD090F85000BA
:104F5000314620F0C0052846FFF72DF820B3204643
:104F600000F040F881460AEB8500D0F80007C0F356
:104F70000148B8F1020F18D002212846FFF74DF979
:104F80000BFA05F1CAF820152846FEF757FB57F82B
:104F900020204AB14846B9F1030F11D0B8F1020FF1
:104FA00005D0B8F1030F07D00DE00321E5E748462F
:104FB000B9F1010F04D006E04846B9F1020F02D161
:104FC000014628469047641C042CBAD3324601217E
:104FD0000020FFF733F930680028B1D1BDE8F09F19
:104FE000540D00200249084490F850008009704791
:104FF000540D002010B50C46017A052908D0407ADE
:1050000038B1084808A102682046FEF7DCFF00E03E
:105010001AB106A12046FEF7D6FF2046BDE8104093
:10502000FEF7DEBF1C0D0020257300000D0A0000F6
:1050300038B5C3880D46044633B114A0009015A2BC
:1050400016A12846FEF7BFFF217A05291CD0607AF9
:1050500048B1A088FFF7D4F9164951F8202016A1CD
:105060002846FEF7B0FFA0880021FFF79DFB03460E
:105070001049207A143951F8202001B02846BDE8A3
:1050800030400EA1FEF79FBF38BD00001B5B306DA6
:10509000000000001B5B313B33316D0025734C6F0A
:1050A00067732064726F70706564202825642925F9
:1050B000730D0A001C0D0020257300003C25733E73
:1050C0002025733A2000000070B50546FEF7B5FBB9
:1050D000134C40B1D4E904024FF08071411842F101
:1050E0000000C4E9041000212846FEF7F3FA30B1AD
:1050F000606820B1606800F07DF9002060600121E7
:105100002846FEF7E7FA18B1FEF796FCC4E9060157
:10511000284600F0BBF92846BDE8704000F038B8DA
:10512000400C00202DE9F04100260E70D0E90274F9
:105130000D468046FEF780FC381A002364EB01011F
:105140001A461B1A8A4115DAB0F5350F04D3FDF75C
:1051500099FE0D49421800E03A464FF496030021AB
:105160000A48FEF776FB10B10D2807D00AE00120AF
:10517000BDE8F08100210548FEF7A2FA404600F0A4
:1051800039F928700020F3E7FFFFB400480C002035
:10519000F8B5204C064600251F48FFF757FD10B311
:1051A000D0E90210CA4372EA000224D0626882B1D8
:1051B0006368D3E90223891A984127D26068D0E94D
:1051C0000210C94371EA000103D061681248FFF779
:1051D0002CFD00F0A5F807466946FFF7A3FFB0B124
:1051E000606858B10DE0606800280FD13046BDE816
:1051F000F840FEF72ABB00F093F8CDE73046FEF703
:1052000020FB67609DF800000028C5D1F8BD6560EF
:10521000C2E70000400C0020845601003EB5044661
:1052200009496846FFF7DAFC08E000BFD0E9002131
:105230002046904730B16846FFF7E7FC0298002807
:10524000F4D13EBD11203EBD485801003EB5044694
:1052500008496846FFF7C2FC07E000BFD0E900211B
:10526000204690476846FFF7D0FC02980028F5D109
:105270003EBD0000545801002DE9F041140088465D
:1052800018D000250E4F032608EB0501224600200A
:10529000FDF7E4FA0544241A40B93878002809D00B
:1052A00008494FF47A408847761E05D001203870AF
:1052B000002CE9D1BDE8F08100203870FAE7000049
:1052C000E00C00202158010010B51620FDF7D8FC95
:1052D000A0B1114890F800044009082811D201211A
:1052E000814011F0EC0F0CD00C4882684FF4800123
:1052F0006AB1016841F48001016010BD42F2010011
:1053000001E042F20200BDE81040FDF7AFBD4FF0F2
:10531000E020C0F8001110BD16E000E0280E0020CB
:105320000148FFF796BC000084560100C207002A1E
:1053300003D000BF4FF00F0201E04FF0F00201D0A8
:105340004FEA0111044B03EB5003187800EA020006
:1053500040EA010018707047B00D00202DE9F84FA9
:10536000074622489146884605681E46012269463E
:105370001846FEF783F8DFF878A060B300980021A4
:105380000446801C0AE000BF00EA050259F821C06B
:105390000AEB8202401C491CC2F80CC0B142F3D394
:1053A0004FEA1749FEF782F9611C29400AEB810197
:1053B00049EA00422C40CA600AEB8401C86867F3DE
:1053C000C50066F3891068F39F2020F00300401C9D
:1053D00020F00400C8609AF8000001E0FFF736F8FA
:1053E0000028FBD1FEF73CFCBDE8F88FEC0C002058
:1053F000D80F0020F8B5044622480026007878B37C
:1054000074B3FEF719FBD4E90232C01A91412DD3CF
:1054100000258DF800506846FDF7C4FD206910B9DD
:10542000681EC4E902009DF80000FDF7DFFDD4E925
:10543000051088478DF800506846FDF7B3FD2269D6
:105440007AB1D4E90210CB4373EA000309D089187A
:105450006841C4E902109DF80000FDF7C7FD09E0AE
:105460000DE09DF80000FDF7C1FD08E0D84370EAAB
:10547000020004D021460448FFF7D7FB012630463E
:10548000F8BD0000400C00208456010038B51D4DC9
:1054900069462868FEF705FD1B4C30E0017821B114
:1054A00001290ED0022922D117E04168D1E902205A
:1054B000D24372EA00021AD012480830FFF7B5FB57
:1054C00015E041686068814202D1002060600EE012
:1054D0000C480830FFF7C4FB09E0FFF721FF20B1BB
:1054E0004FF0FF31C0E90211F7E701202070694653
:1054F0002868FEF7CBFC69462868FEF7D2FC002836
:10550000CCD138BD7C560100400C0020F8B50B4CC6
:105510000D46064669462068FEF7ADFC58B1067098
:10552000456069462068FEF7C7FC10B10448FEF7E5
:1055300071F90020F8BD0420F8BD00007C56010080
:10554000480C002003488068410803480022406856
:10555000FDF7DCBC080C0020745601002DE9F05F5B
:105560008346DDE90A4A994690460D4608460127DA
:1055700003E000BFB0FBF8F07F1C4045FAD2B9450C
:1055800000D94F465FEACA7012D18CB15FEA8A70C7
:1055900002D5B9F1000F01D0202607E0302605E042
:1055A00031465846641EFDF7B3FF0CB1A742F7D34E
:1055B0005FF00106B9F1010F02D9A9F1010903E079
:1055C000B5FBF6F0404502D306FB08F6F2E7DFF83C
:1055D0003C9000BFB5FBF6F000FB165519F8001023
:1055E0005846FDF795FFB6FBF8F6002EF2D15FEABC
:1055F000CA7009D0002C07D0A74205D220215846F6
:10560000641EFDF785FFF5E7BDE8F09F96560100A3
:1056100070B50C460546FDF79FFF002807D042688D
:10562000002A04D021462846BDE87040104770BDCE
:10563000001000420103000000200000181F111498
:1056400006071013A00B0020C00B0020E00B002069
:105650000600030041310100070003004131010051
:10566000100003004131010013000300413101002B
:105670000000005003000000200C0020C00D00209E
:105680000100060000000000600C00204D36010003
:105690000338FDD870473031323334353637383936
:1056A0004142434445460000000000000000000065
:1056B00000000000000000000000000000000000EA
:1056C000A8560100C056010004000000556E6B6E24
:1056D0006F776E206572726F7220636F6465000071
:1056E00000000000E861010001000000946001007A
:1056F00002000000885E0100030000000861010054
:10570000040000005C610100050000003C60010035
:1057100006000000D85F010007000000446101009E
:10572000080000005060010009000000B4600100A2
:105730000A000000D06101000B000000705E010053
:105740000C000000686001000D00000038620100DC
:105750000E000000346101000F00000070610100C4
:1057600010000000A4610100110000004C62010063
:10577000120000002062010013000000BC61010063
:1057800080000000F05F0100810000002C5F01003C
:1057900082000000EC5E010083000000CC5E01008E
:1057A00084000000085F0100850000001460010013
:1057B000860000001C61010090000000B85F01003D
:1057C00091000000AC5E0100920000007C600100CE
:1057D000008200008461010001820000D0600100AD
:1057E00002820000EC60010000840000485F0100BC
:1057F00001840000F461010002840000905F010058
:10580000038400006C5F0100254301002343010075
:105810001D43010000000000000000000000000027
:105820000338FDD870470000400F00207F000000C3
:10583000C00F002000000000000000000000000079
:105840000000000001000007345801004458010026
:10585000080000006C5801007C580100080000009E
:105860007C5801008C580100080000000000000076
:10587000000000000000000000000000FC630100C8
:105880000C640100000000000000000000000000A7
:1058900000000000F4630100FC6301008C5801006B
:1058A0009C58010008000000010020008016002024
:1058B0008000000000000000000000000000000068
:1058C00000000000B4580100C458010008000000A6
:1058D0000040404040404040404041414141414003
:1058E00040404040404040404040404040404040B8
:1058F0004005020202020202020202020202020247
:10590000022020202020202020202002020202024B
:1059100002029090909090901010101010101010A3
:1059200010101010101010101010101002020202AF
:1059300002028888888888880808080808080808F3
:1059400008080808080808080808080802020202EF
:1059500040000000D15801004461746120627573F9
:10596000206572726F72202872657475726E206184
:1059700064647265737320696E2074686520737443
:1059800061636B206672616D65206973206E6F7450
:105990002072656C6174656420746F207468652082
:1059A000696E737472756374696F6E207468617464
:1059B0002063617573656420746865206572726F19
:1059C00072290000446174612062757320657272EF
:1059D0006F72202850432076616C75652073746166
:1059E000636B656420666F722074686520657863F8
:1059F000657074696F6E2072657475726E20706F59
:105A0000696E747320746F2074686520696E737496
:105A100072756374696F6E20746861742063617558
:105A200073656420746865206661756C7429000074
:105A300043617573653A204275734661756C7420D5
:105A40006F6E206120766563746F72207461626C82
:105A500065207265616420647572696E672065787F
:105A600063657074696F6E2070726F6365737369BC
:105A70006E672E005468652070726F636573736F74
:105A80007220686173206578656375746564206150
:105A90006E2053444956206F722055444956206960
:105AA0006E737472756374696F6E207769746820A1
:105AB000612064697669736F72206F662030000020
:105AC0005468652070726F636573736F72206861CC
:105AD0007320617474656D7074656420746F2065E3
:105AE00078656375746520616E20696E7374727574
:105AF0006374696F6E2074686174206D616B657387
:105B000020696C6C6567616C20757365206F662019
:105B100074686520455053520000000054686520A9
:105B200070726F636573736F722068617320617444
:105B300074656D7074656420616E20696C6C656756
:105B4000616C206C6F6164206F66204558435F5222
:105B5000455455524E20746F207468652050432C74
:105B6000206173206120726573756C74206F6620EC
:105B7000616E20696E76616C696420636F6E746516
:105B800078742C206F7220616E20696E76616C696A
:105B900064204558435F52455455524E2076616CFF
:105BA000756500005468652070726F636573736F6C
:105BB0007220617474656D707465642061206C6F0F
:105BC0006164206F722073746F726520617420614C
:105BD000206C6F636174696F6E20746861742064F7
:105BE0006F6573206E6F74207065726D69742074B8
:105BF0006865206F7065726174696F6E00000000E7
:105C000041204D656D4D616E616765206661756C03
:105C100074206F6363757272656420647572696E57
:105C20006720666C6F6174696E672D706F696E7442
:105C3000206C617A79207374617465207072657369
:105C40006572766174696F6E0000000041206275B4
:105C500073206661756C74206F636375727265641E
:105C600020647572696E6720666C6F6174696E6717
:105C70002D706F696E74206C617A79207374617411
:105C80006520707265736572766174696F6E00006D
:105C90005468652070726F636573736F72206861FA
:105CA0007320617474656D7074656420746F206511
:105CB00078656375746520616E20756E64656669CC
:105CC0006E656420696E737472756374696F6E00BB
:105CD000496E737472756374696F6E206275732098
:105CE0006572726F720000005468652070726F6395
:105CF0006573736F722068617320617474656D7071
:105D000074656420746F2061636365737320612020
:105D1000636F70726F636573736F7200556E737427
:105D200061636B20666F7220616E206578636570B9
:105D300074696F6E2072657475726E20686173206D
:105D4000636175736564206F6E65206F72206D6F7F
:105D50007265206163636573732076696F6C61742B
:105D6000696F6E7300000000537461636B696E6746
:105D700020666F7220616E20657863657074696F4C
:105D80006E20656E7472792068617320636175732B
:105D90006564206F6E65206F72206D6F7265206183
:105DA00063636573732076696F6C6174696F6E737A
:105DB000000000005468652070726F636573736F34
:105DC0007220686173206D61646520616E20756E5C
:105DD000616C69676E6564206D656D6F72792061B5
:105DE0006363657373000000556E737461636B20A9
:105DF000666F7220616E20657863657074696F6E7E
:105E00002072657475726E206861732063617573AA
:105E10006564206F6E65206F72206D6F7265204221
:105E200075734661756C7473000000005374616390
:105E30006B696E6720666F7220616E20657863659E
:105E40007074696F6E20656E74727920686173205A
:105E5000636175736564206F6E65206F72206D6F6E
:105E60007265204275734661756C747300000000A2
:105E70004E52465F4552524F525F494E56414C4931
:105E8000445F4441544100004E52465F4552524FD8
:105E9000525F534F46544445564943455F4E4F5415
:105EA0005F454E41424C4544000000004E52465F63
:105EB0004552524F525F464541545552455F4E4FF1
:105EC000545F454E41424C45440000004E52465FEF
:105ED0004552524F525F4D555445585F554E4C4FA9
:105EE000434B5F4641494C45440000004E52465FDB
:105EF0004552524F525F4D555445585F4C4F434B9E
:105F00005F4641494C4544004E52465F4552524F10
:105F1000525F4D555445585F434F4E445F494E497B
:105F2000545F4641494C4544000000004E52465FD4
:105F30004552524F525F4D555445585F494E495452
:105F40005F4641494C4544004E52465F4552524FD0
:105F5000525F424C455F495053505F52585F504B1F
:105F6000545F5452554E4341544544004E52465F8F
:105F70004552524F525F424C455F495053505F501B
:105F80004545525F52454A45435445440000000090
:105F90004E52465F4552524F525F424C455F495008
:105FA00053505F4C494E4B5F444953434F4E4E450F
:105FB00043544544000000004E52465F4552524F44
:105FC000525F4150495F4E4F545F494D504C454DD3
:105FD000454E5445440000004E52465F4552524FD4
:105FE000525F4E4F545F535550504F5254454400EA
:105FF0004E52465F4552524F525F4D4F44554C45AD
:106000005F4E4F545F494E495449414C495A4544AB
:10601000000000004E52465F4552524F525F4D4FB6
:1060200044554C455F414C52454144595F494E49A6
:106030005449414C495A4544000000004E52465FC5
:106040004552524F525F4E4F545F464F554E44009B
:106050004E52465F4552524F525F494E56414C494F
:10606000445F5354415445004E52465F4552524F8F
:10607000525F444154415F53495A45004E52465F76
:106080004552524F525F494F5F50454E44494E472B
:10609000000000004E52465F4552524F525F535629
:1060A000435F48414E444C45525F4D495353494E1E
:1060B000470000004E52465F4552524F525F494ED4
:1060C00056414C49445F4C454E475448000000003F
:1060D0004E52465F4552524F525F4452565F54579C
:1060E000495F4552525F414E41434B004E52465F1D
:1060F0004552524F525F4452565F5457495F455282
:10610000525F444E41434B004E52465F4552524F00
:10611000525F494E5445524E414C00004E52465F2C
:106120004552524F525F53544F524147455F465577
:106130004C4C00004E52465F4552524F525F4E55F6
:106140004C4C00004E52465F4552524F525F494EF2
:1061500056414C49445F504152414D004E52465FBA
:106160004552524F525F4E4F5F4D454D000000006B
:106170004E52465F4552524F525F464F524249443B
:1061800044454E004E52465F4552524F525F445274
:10619000565F5457495F4552525F4F5645525255CC
:1061A0004E0000004E52465F4552524F525F494EDC
:1061B00056414C49445F4144445200004E52465FB0
:1061C0004552524F525F5245534F5552434553002B
:1061D0004E52465F4552524F525F494E56414C49CE
:1061E000445F464C414753004E52465F535543432C
:1061F000455353004E52465F4552524F525F424CF8
:10620000455F495053505F4348414E4E454C5F41B6
:106210004C52454144595F4558495354530000007E
:106220004E52465F4552524F525F434F4E4E5F4370
:106230004F554E54000000004E52465F4552524F9B
:10624000525F54494D454F55540000004E52465F31
:106250004552524F525F4255535900007761726E5A
:10626000696E670064656275670000001B5B313B07
:1062700033306D001B5B306D000000001B5B313B59
:1062800033316D001B5B313B33326D001B5B313BA7
:1062900033336D001B5B313B33346D001B5B313B93
:1062A00033356D001B5B313B33366D001B5B313B7F
:1062B00033376D00696E666F000000004750494F2C
:1062C0005445000050525300554152540000000004
:1062D00055415254450000006170705F62757474DE
:1062E0006F6E00006170705F74696D657200000010
:1062F000686172646661756C740000007077725F2B
:106300006D676D7400000000736F72746C69737454
:10631000000000007274745F6C6F675F6261636B92
:10632000656E6400617070006E72665F7364680011
:106330006E72665F7364685F616E74006E72665F32
:106340007364685F736F63000C640100800B00204E
:10635000C80100005025010090640100480D002094
:10636000B8290000722C010008580100000000004C
:1063700014630100E40C0020BC6201000000000076
:10638000C462010000000000C862010000000000BB
:10639000D062010000000000D8620100000000008F
:1063A000E462010000000000F0620100000003034D
:1063B000FC62010000000000086301000000000012
:1063C00024630100000003032863010000000303AD
:1063D00030630100000003033C630100000003037D
:1063E000F80C0020F00C0020F80C0020800E00209B
:1063F00018000000E92C0100000000007D4A0100A7
:1064000000000000A14B0100000000000326FFFF78
:106410005AFF01095620093E801115100140110252
:10642000210414905C0154A45B01141C5D011A68E2
:1064300004111914811AD00C14C459011A58041AE1
:10644000E81C142C5E019A4C20294014C05A011AF1
:106450001C449AE818811AB4341A7420F9C05904FB
:10646000011C1AE050145C62011AB4041A64041A84
:1064700074041A6C041A7C041A84041A8C041A9486
:10648000041A9C041AA4041AAC0449950300D0030E
:0400000500012201D3
:00000001FF
